:1000000050C000006CC000006AC0000068C0000062
:1000100066C0000064C0000062C0000060C0000054
:100020005EC000005CC000005AC0000058C0000064
:1000300056C000002FC5000052C0000050C0000094
:100040004EC000004CC000004AC0000048C0000084
:1000500046C0000044C0000042C0000040C0000094
:100060003EC000003CC000003AC0000038C00000A4
:1000700036C0000034C0000032C0000030C00000B4
:100080002EC000002CC000002AC00000F002D601E3
:10009000EF0101024D025F0286029902A702B1023E
:1000A000C90211241FBECFEFD0E4DEBFCDBF15E0E3
:1000B000A0E0B1E0EAE3F5E100E00BBF02C0079089
:1000C0000D92AE3AB107D9F72AE0AEEAB5E001C029
:1000D0001D92AD34B207E1F778D70C949B0A90CF0C
:1000E0008230910518F08130910561F4039906C0C2
:1000F00081E08093CB0581E090E008951092CB05DC
:1001000081E090E008958230910518F081309105EA
:1001100061F4009906C081E08093CA0581E090E017
:1001200008951092CA0581E090E00895823091050B
:1001300018F08130910561F4019906C081E0809347
:10014000C90581E090E008951092C90581E090E032
:1001500008958230910518F08130910561F402997B
:1001600006C081E08093C80581E090E00895109278
:10017000C80581E090E008958230910518F001975C
:1001800009F043C08091CB05882381F08091CA0596
:10019000811130C08091C90581112CC08091C805A2
:1001A000811128C088E08093C5052FC08091CA05C1
:1001B000811128C08091C90581111FC08091C80597
:1001C0008823D9F084E08093C5051FC08091C805BD
:1001D000811110C082E08093C50517C08091C905C8
:1001E000811108C08091C805811104C081E080930D
:1001F000C5050BC01092C50508C08091C9058111C5
:10020000E5CFF8CF8111EACFF5CF80E090E00895F7
:10021000181619065CF00895000021503109E1F725
:100220004F5F5F4F8417950719F4089540E050E041
:1002300027E033E0F1CF28988BB9299A000029985C
:1002400082E090E0E5CF089581E0F5CF0895813117
:1002500018F48158F0CF08958155EDCF0895289A6C
:100260008BB9299A0000299881E090E0D1CF0895B8
:100270000F931F93CF93DF93182FEB01E5DF888156
:10028000882351F001E0010F812FE1DF8991E7DF41
:10029000102F88818111F6CFDF91CF911F910F919F
:1002A00008951F93CF93DF936230710509F4805F47
:1002B000FA019081992351F0EA0111E0180FC7DF8C
:1002C0008991CDDF812F98819111F7CFDF91CF9167
:1002D0001F9108950F931F93CF93DF938B01883065
:1002E00068F4880F880F880F805CA5DFE801085F3D
:1002F0001F4F8991B4DFC017D107D9F780E89BDF82
:10030000DF91CF911F910F91089584E690E080DFF7
:1003100088E391DF86E08FDF8FE08DDF81E08BDF88
:100320008AE090E075DF6EE475E080E0D3DF66E49C
:1003300075E081E0CFDF6EE375E082E0CBDF66E35E
:1003400075E084E0C7DF6EE275E085E0C3DF66E25A
:1003500075E086E0BFCF08958CE06DDF81E077DF48
:1003600085E07DDF86E073DF81E079DF82E077DFA3
:1003700084E075DF80E073DF80E169DF85E06FDFB7
:1003800046E555E062E070E081E08BDF87E15FDF0A
:1003900086E065CF0895CF93DF938B30910508F009
:1003A0000AC1FC01EA5BFF4F0C94690A8091CB05FE
:1003B000882309F415C18091CA05882309F410C166
:1003C0008091C805882309F40BC18091C905882351
:1003D00009F406C11092C60582E090E0E2C22091C5
:1003E000CB052111DEC22091CA052111DAC220916C
:1003F000C9052111D6C22091C8052111D2C224DF1E
:10040000F3C02091CB05222371F03091CA05311140
:100410000AC03091C905311106C02091C8052111CB
:10042000CAC012DFDDC08091C8058823B1F0809179
:10043000C9058111D9C02111D7C08091CA05811188
:10044000D3C08091C605882321F081E08093C60542
:10045000CFC081E08093C605CBC08091C9058823B9
:1004600009F49CC22111C0C08091CA058111BCC091
:100470008091C605882309F4C2C081508093C605C7
:10048000B3C08091CA05882309F4AEC08091C60527
:10049000882309F480C2D8DEA3C02091CB052111A6
:1004A00080C22091CA0521117CC22091C905211169
:1004B00078C22091C805211174C2C6DEB7C08091F0
:1004C000CB05882371F08091CA058111AFC080915E
:1004D000C9058111ABC08091C8058111A7C0B4DEE8
:1004E00083C08091CA05882309F4A0C08091C90502
:1004F00081119CC08091C805811198C0A5DE6DE86E
:1005000075E081E0B5DE86E090E04BC22091CB053E
:10051000211147C22091CA05211143C22091C9056A
:1005200021113FC22091C80521113BC287E090E014
:1005300038C22091B305293120F42F5F2093B305F1
:1005400030C21092B30581E08093B8050CC1809150
:10055000BA05882309F407C18091B805811103C148
:100560007BC18091CB0581110DC08091CA0581119D
:1005700009C08091C905811105C08091C8058823F3
:1005800009F46AC11092BA051092B9058AE090E0A8
:1005900008C22091CB05211104C22091CA05211166
:1005A00000C22091C9052111FCC12091C80521116B
:1005B000F8C14ADE15C08530910509F437C03CF416
:1005C0008130910569F08330910571F0EAC188307E
:1005D000910509F4C8C08930910509F43DC1E1C114
:1005E000BBDE81E090E0DDC18091C605882339F053
:1005F00081E02DDE80E233DE81E129DE06C081E18B
:1006000026DE80E22CDE81E022DE85EA28DE47E677
:1006100055E061E070E082E044DE45E755E062E0ED
:1006200070E082E03EDE83E090E0BBC148E755E049
:1006300061E070E081E035DE87E009DE80E00FDE1A
:1006400048E855E062E070E081E02BDE8CE1FFDD00
:100650008091C605CCE1D4E08C9FF0018D9FF00D18
:100660001124E55BF54F208131813695279536952C
:100670002795ABE7B4E136D7AC01569547959A017B
:10068000ADECBCEC2FD7969587959695879596956A
:1006900087959C01220F331F880F991F880F991F80
:1006A000880F991F820F931F9A01281B390BC901CC
:1006B000805DD5DD8091C6058C9FF0018D9FF00D8A
:1006C0001124E55BF54F20813181ADECBCEC0AD7FC
:1006D000AC015695479556954795569547959A017D
:1006E00001D79695879596958795969587959C01C0
:1006F000220F331F880F991F880F991F880F991F8A
:10070000820F931F9A01281B390BC901805DA7DD59
:100710008091C6058C9FF0018D9FF00D1124E55B43
:10072000F54F408151819A01ADECBCECDBD696953A
:10073000879596958795969587959C01220F331FEF
:10074000880F991F880F991F880F991F820F931F79
:100750009A01281B390BC901805D81DD81E277DDBB
:1007600085E090E01EC18091B905882309F410C18D
:1007700089E06DDD2091C3053091C405369527953C
:1007800036952795ABE7B4E1ADD6AC0156954795C4
:100790009A01ADECBCECA6D6969587959695879573
:1007A000969587959C01220F331F880F991F880FFC
:1007B000991F880F991F820F931F9A01281B390BCD
:1007C000C901805D4CDD2091C3053091C405ADECBD
:1007D000BCEC88D6AC0156954795569547955695ED
:1007E00047959A017FD69695879596958795969584
:1007F00087959C01220F331F880F991F880F991F1F
:10080000880F991F820F931F9A01281B390BC9016A
:10081000805D25DD4091C3055091C4059A01ADEC82
:10082000BCEC60D696958795969587959695879515
:100830009C01220F331F880F991F880F991F880F63
:10084000991F820F931F9A01281B390BC901805DE4
:1008500006DD88E090E0A5C02091C6058CE194E01B
:10086000289FF001299FF00D1124E55BF54F2081B1
:1008700031818091C3059091C4052817390708F08C
:100880007EC0E2DC64E975E081E0F2DC8CE0DFDC74
:100890002091C3053091C405369527953695279547
:1008A000ABE7B4E11FD6AC01569547959A01ADEC84
:1008B000BCEC18D6969587959695879596958795CD
:1008C0009C01220F331F880F991F880F991F880FD3
:1008D000991F820F931F9A01281B390BC901805D54
:1008E000BEDC2091C3053091C405ADECBCECFAD55B
:1008F000AC015695479556954795569547959A015B
:10090000F1D59695879596958795969587959C01AF
:10091000220F331F880F991F880F991F880F991F67
:10092000820F931F9A01281B390BC901805D97DC48
:100930004091C3055091C4059A01ADECBCECD2D5F1
:100940009695879596958795969587959C01220F04
:10095000331F880F991F880F991F880F991F820FC7
:10096000931F9A01281B390BC901805D78DC6091C7
:10097000C30581E090E0CDD589E090E012C040EA67
:1009800055E062E070E081E08CDC89E090E009C035
:1009900088E090E006C084E090E003C0211124CEFE
:1009A00070CDDF91CF910895609322057093230558
:1009B00080932405909325056093CC057093CD0515
:1009C0008093CE059093CF0508958BE080938100AE
:1009D0008DE790E0909389008093880082E0809377
:1009E0006F001092850010928400809122059091F2
:1009F0002305A0912405B09125058093CC05909303
:100A0000CD05A093CE05B093CF058FB780688FBF7B
:100A10000895EF92FF920F931F93CF93DF9381E09E
:100A20008093D005C1EDD5E00F2EF1E3EF2EF6E077
:100A3000FF2EF02D8E014E815F81688579858A8138
:100A40009B81AC81BD81481759076A077B0758F025
:100A5000EA85FB85888199810995998388831E821F
:100A60001F8218861986F80186819781A085B18535
:100A70000596A11DB11D86839783A087B1872C960B
:100A8000CE15DF05B9F6DF91CF911F910F91FF9041
:100A9000EF9008951F920F920FB60F9211240BB68C
:100AA0000F922F933F934F935F936F937F938F9307
:100AB0009F93AF93BF93EF93FF938091CC05909159
:100AC000CD05A091CE05B091CF050197A109B1093F
:100AD0008093CC059093CD05A093CE05B093CF0520
:100AE000892B8A2B8B2B89F494DF8091220590919E
:100AF0002305A0912405B09125058093CC05909302
:100B0000CD05A093CE05B093CF05FF91EF91BF9196
:100B1000AF919F918F917F916F915F914F913F9195
:100B20002F910F900BBE0F900FBE0F901F90189536
:100B30003A9A3B9A3C9A0895429A089542980895A9
:100B4000439A43980895449A81E090E0FC013197DC
:100B5000F1F744980197F1F70895CF93DF93D82FD9
:100B6000C8E0DD2314F4E8DF01C0E8DFE9DFDD0FD2
:100B7000C150B9F7E8DFDF91CF910895EF92FF926E
:100B80000F931F93CF93DF938130910531F0823023
:100B9000910561F0009779F41BC08091B805882316
:100BA000B9F01092B2051092B1050CC08091BA054F
:100BB000882341F00DC08130910551F082309105BC
:100BC00009F0CFC00BEB15E023EC35E0F80135C0A0
:100BD0008091CB05882349F000E011E0C0E0D0E02F
:100BE0006894EE24E7F8F12C0DC08091CA058111BC
:100BF000F3CF8091C9058111EFCF8091C805811194
:100C0000EBCF14C0C7010C2E02C0959587950A94AE
:100C1000E2F7A3DFF80181918F0180959EDF83E0E9
:100C200090E0F6DA2196C830D10561F780E095DFD3
:100C300080E093DF81E090E094C08081880F819311
:100C40002E173F07D1F72091C60530E08091C705E8
:100C500090E04091B2056CE174E0269FF001279F7F
:100C6000F00D369FF00D1124E80FF91FE757F74FED
:100C700050814517E0F5269FF001279FF00D369F24
:100C8000F00D11248E0F9F1FFC01EB54F64F808155
:100C9000813049F4EBEBF5E08081816080838181D4
:100CA0008160818320C0823049F4EBEBF5E08281E2
:100CB0008160828383818160838315C0843049F49D
:100CC000EBEBF5E08481816084838581816085839D
:100CD0000AC0883041F4EBEBF5E0868181608683C1
:100CE0008781816087834F5F4093B20533C0409115
:100CF000B1056CE174E0269FF001279FF00D369F4F
:100D0000F00D11248E0F9F1FFC01E15EF64F8081D4
:100D1000481720F44F5F4093B1051CC01092B205F4
:100D20001092B10517C0C7010C2E02C0959587958A
:100D30000A94E2F712DFF80181918F0180950DDFAF
:100D400085E090E065DA2196C830D10561F782E050
:100D500090E007C0C0E0D0E06894EE24E7F8F12C02
:100D6000E2CFDF91CF911F910F91FF90EF90089507
:100D7000CF92DF92EF92FF926B017C019B01AC015D
:100D80006091B4057091B5058091B6059091B70555
:100D900027D2882309F452C020E030E0A901C7011E
:100DA000B6011ED2811106C0E1E9F0E080818870B1
:100DB000808305C0E1E9F0E080818360808328E5DD
:100DC00039E344E75FE3C701B6010AD288233CF464
:100DD0008FEF9FEF909399008093980023C020E0BD
:100DE00034E244EF56E4C701B6010CD318162CF4D4
:100DF000109299001092980015C020E030E040E079
:100E000053E4C701B60102D39B01AC0160E074E278
:100E100084EF9AE4E9D150D261507109709399003E
:100E2000609398001092950010929400C092B405BF
:100E3000D092B505E092B605F092B705FF90EF901D
:100E4000DF90CF90089580E4809390008BE08093B2
:100E5000910060E070E0CB018BCF0895109290007C
:100E6000109291000895CF938130910531F0823036
:100E7000910549F0009769F414C08091B805882362
:100E800081F0E1DF15C08091BA05882389F0E6DFA3
:100E900008C08130910529F08230910509F093C096
:100EA00007C01092B0051092AF0581E090E08BC0B2
:100EB0008091C60590E06091C705462F50E02CE177
:100EC00034E0829FF001839FF00D929FF00D11247A
:100ED000E40FF51FE757F74F30812091B005231736
:100EE00008F041C02CE134E0829FF001839FF00DB7
:100EF000929FF00D1124E40FF51FEB54F64FC081C3
:100F0000C093AE0527E031E0829FF001839FF00D92
:100F1000929FF00D1124E40FF51FEE0FFF1FEE0F4F
:100F2000FF1FEF5CF94F608171818281938120DF27
:100F30008091C505C8130DC08091C3059091C4056B
:100F400001969093C4058093C30581E08093B90511
:100F500002C01092B9058091B0058F5F8093B005F3
:100F600082E090E030C0C091AF05ECE1F4E08E9FEC
:100F700090018F9F300D9E9F300D1124FA01E20FDA
:100F8000F31FE15EF64F8081C81750F460E070E017
:100F9000CB01EEDECF5FC093AF0582E090E013C0DF
:100FA0001092B0051092AF05663930F46F5F609310
:100FB000C70582E090E007C01092B80581E08093F9
:100FC000BA0582E090E0CF9108958FEF8AB91BB8FF
:100FD00087B918B811B882B984B915B896D9A8DDFF
:100FE00080E0BBDD8FEFB9DD0F2EFAECAF2EF2E023
:100FF000BF2EF02D0F2EF1E3CF2EF6E0DF2EF02DD9
:101000000F2EF4E3EF2EF2E0FF2EF02D09E818E0AA
:10101000CEE9D1E00F2EFFE18F2EF9E09F2EF02DCB
:101020000F2EF8E06F2EF1E07F2EF02D0F2EF5EB56
:101030004F2EF9E05F2EF02D312CF5018191919129
:10104000A191B1915F01F60181939193A193B19325
:101050006F01F70181917F01F80181938F018991DF
:10106000F40181934F01F30181913F01F2018193DA
:101070002F0181E090E045D290E0EBE4FAE091832B
:1010800080833394F9E43F12D8CFE1EDF5E011828B
:10109000108282E390E0A0E0B0E082839383A48397
:1010A000B58386839783A087B18720E730E03387B5
:1010B00022871586148686879787A08BB18B828BB3
:1010C000938BA48BB58B23E830E0378B268B118E66
:1010D000108E828F938FA48FB58F868F978FA0A34A
:1010E000B1A326E930E033A322A315A214A286A35C
:1010F00097A3A0A7B1A782A793A7A4A7B5A789EA9A
:1011000090E097A786A711AA10AA8AE090E0A0E035
:10111000B0E082AB93ABA4ABB5AB86AB97ABA0AF63
:10112000B1AF8EEB95E093AF82AF15AE14AE8EE10A
:1011300090E0A0E0B0E080930F0690931006A0939B
:101140001106B09312068093130690931406A09391
:101150001506B09316068BEC91E0909318068093D9
:10116000170610921A06109219068FE090E0A0E080
:10117000B0E080931B0690931C06A0931D06B093CD
:101180001E0680931F0690932006A0932106B0931D
:10119000220623E337E0309324062093230610929F
:1011A0002606109225068093270690932806A09382
:1011B0002906B0932A0680932B0690932C06A093C1
:1011C0002D06B0932E068CEB90E090933006809322
:1011D0002F0665E070E080E090E0E6DBF6DBFFCF15
:1011E0009CD008F481E008950CD0D2C0CAD040F061
:1011F000C1D030F021F45F3F19F0B3C05111FCC0F1
:10120000B6C0D7D098F39923C9F35523B1F3951BF2
:10121000550BBB27AA2762177307840738F09F5F17
:101220005F4F220F331F441FAA1FA9F333D00E2E86
:101230003AF0E0E830D091505040E695001CCAF7F3
:1012400029D0FE2F27D0660F771F881FBB1F2617B8
:1012500037074807AB07B0E809F0BB0B802DBF018B
:10126000FF2793585F4F2AF09E3F510568F079C0E1
:10127000C3C05F3FECF3983EDCF3869577956795A6
:10128000B795F7959F5FC9F7880F911D969587953C
:1012900097F90895E1E0660F771F881FBB1F62175B
:1012A00073078407BA0720F0621B730B840BBA0B19
:1012B000EE1F88F7E095089504D06894B1119CC0A2
:1012C00008957FD088F09F5790F0B92F9927B75194
:1012D000A0F0D1F0660F771F881F991F1AF0BA95FA
:1012E000C9F712C0B13081F086D0B1E0089583C053
:1012F000672F782F8827B85F39F0B93FCCF38695F0
:1013000077956795B395D9F73EF49095809570954C
:1013100061957F4F8F4F9F4F0895990F0008550F8C
:10132000AA0BE0E8FEEF16161706E807F907C0F06B
:1013300012161306E407F50798F0621B730B840B73
:10134000950B39F40A2661F0232B242B252B21F44D
:1013500008950A2609F4A140A6958FEF811D811DED
:10136000089597F99F6780E870E060E008959FEF27
:1013700080EC089500240A9416161706180609062C
:10138000089500240A9412161306140605060895FB
:10139000092E0394000C11F4882352F0BB0F40F483
:1013A000BF2B11F460FF04C06F5F7F4F8F4F9F4FC3
:1013B000089557FD9058440F551F59F05F3F71F045
:1013C0004795880F97FB991F61F09F3F79F08795AC
:1013D0000895121613061406551FF2CF4695F1DF35
:1013E00008C0161617061806991FF1CF86957105C5
:1013F000610508940895E894BB2766277727CB01F9
:1014000097F908958ADF08F48FEF08950BD0C0CFC5
:10141000B1DF28F0B6DF18F0952309F0A2CFA7CFEF
:101420001124EACFC6DFA0F3959FD1F3950F50E0CA
:10143000551F629FF001729FBB27F00DB11D639F86
:10144000AA27F00DB11DAA1F649F6627B00DA11D2C
:10145000661F829F2227B00DA11D621F739FB00DD2
:10146000A11D621F839FA00D611D221F749F332742
:10147000A00D611D231F849F600D211D822F762FDB
:101480006A2F11249F5750408AF0E1F088234AF0D8
:10149000EE0FFF1FBB1F661F771F881F9150504024
:1014A000A9F79E3F510570F05CCFA6CF5F3FECF3EC
:1014B000983EDCF3869577956795B795F795E79510
:1014C0009F5FC1F7FE2B880F911D9695879597F921
:1014D0000895EE0FFF1F0024001C0BBE0790F6912D
:1014E000E02D0994A29FB001B39FC001A39F700D8E
:1014F000811D1124911DB29F700D811D1124911D1C
:101500000895F999FECF92BD81BDF89A992780B5CB
:101510000895262FF999FECF92BD81BDF89A0197C3
:1015200000B4021639F01FBA20BD0FB6F894FA9A2B
:0A153000F99A0FBE0895F894FFCF5A
:10153A00040C181818180C04100102020202020204
:10154A000202020104040404040404010202020265
:10155A00020202020208040404040404040102024E
:10156A000202020202020201040404040404040145
:10157A000202020202010204080408080808080814
:10158A00F000000000000000000000000000000061
:10159A000000000000000000000000000000000041
:1015AA000000000000000000000000000000000031
:1015BA000000000000000000000000000000000021
:1015CA0000000000000000000000000000001004FD
:1015DA0009020801020402020204080208020209BE
:1015EA0000040802090202040202020408020802B4
:1015FA0002090004090208010204020202040802A4
:10160A000802020900040902080102040000000499
:10161A00080208020200200000000000000000008A
:10162A0000000000000000000000000000000000B0
:10163A0000000000000000000000000000000000A0
:10164A000000000000000000000000000000000090
:10165A000000000000000000000000000000000080
:10166A000000000010040402040202040202020440
:10167A00040204020204080404020402020402022C
:10168A00020404020402020408040402040202041A
:10169A00020202040402040202040804040204020C
:1016AA000204040404040402040202040000000008
:1016BA000000000000000000000000000000000020
:1016CA000000000000000000000000000000000010
:1016DA000000000000000000000000000000000000
:1016EA0000000000000000000000000000000000F0
:1016FA0000000000000000000000000000000000E0
:10170A00DC430000B9430000B9430000B9430000BC
:10171A00B9430000B9430000B9430000B9430000CF
:10172A00B9430000B9430000DC43000093430000C2
:10173A009343000093430000934300009343000047
:10174A009343000093430000DC430000B9430000C8
:10175A00B9430000B9430000B9430000B94300008F
:10176A00B9430000B9430000B9430000B9430080FF
:10177A008A43000093430000934300009343000010
:10178A0093430000934300009343000093430000F7
:10179A00DC430000B9430000B9430000B94300002C
:1017AA00B9430000B9430000B9430000B94300003F
:1017BA00B9430000B9430000DC4300009343000032
:1017CA0093430000934300009343000093430000B7
:1017DA009343000093430000DC430000B943000038
:1017EA00B9430000B9430000B9430000B94300807F
:1017FA000A4400C012440000F7430000B943000045
:10180A00F7430000DC430000DC430000DC43000037
:10181A00DC430000DC430000DC4300000000000061
:10182A0000000000000000000000000000000000AE
:10183A00000000000000000000000000000000009E
:10184A00000000000000000000000000000000008E
:10185A00000000000000000000000000000000007E
:10186A00000000000000000000000000000000006E
:10187A00000000000000000000000000000000005E
:10188A00000000000000000000000000000000004E
:10189A00000000000000000000000000000000003E
:1018AA00000000000000000000000000000000002E
:1018BA00000000000000000000000000000000001E
:1018CA00000000000000000000000000000000000E
:1018DA0000000000000000000000000000000000FE
:1018EA0000000000000000000000000000000000EE
:1018FA0000000000000000000000000000000000DE
:10190A0000000000000000000000000000000000CD
:10191A0000000000000000000000000000000000BD
:10192A0000000000000000000000000000000000AD
:10193A00000000000000000000000000000000009D
:10194A00000000000000000000000000000000008D
:10195A0000000100000004021F001F08040000002C
:10196A001B15110A0400040E1F04040404040404D1
:10197A000404041F0E0401020408040201001008F2
:10198A000402020408105072657373202D20746FCC
:10199A00207374617274005A454E205A454E205A7B
:1019AA00454E5345004E4F005072657373202D20EB
:1019BA00746F20706C617900486967682053636F9F
:1019CA0072653A00484947482053434F52453A0006
:0E19DA0054727920616761696E203A2800001E
:00000001FF
