S01B000052687974686D5F47616D655F50726F6A6563742E737265637E
S113000050C000006CC000006AC0000068C000005E
S113001066C0000064C0000062C0000060C0000050
S11300205EC000005CC000005AC0000058C0000060
S113003056C0000042C5000052C0000050C000007D
S11300404EC000004CC000004AC0000048C0000080
S113005046C0000044C0000042C0000040C0000090
S11300603EC000003CC000003AC0000038C00000A0
S113007036C0000034C0000032C0000030C00000B0
S11300802EC000002CC000002AC00000EF02D601E0
S1130090EF0101024D025F0282029302A102AB0250
S11300A0C30211241FBECFEFD0E4DEBFCDBF15E0E5
S11300B0A0E0B1E0E0EBF5E100E00BBF02C0079087
S11300C00D92AE3AB107D9F72AE0AEEAB5E001C025
S11300D01D92AD34B207E1F7B7D70C94D60A90CF8E
S11300E08230910518F08130910561F4039906C0BE
S11300F081E08093CB0581E090E008951092CB05D8
S113010081E090E008958230910518F081309105E6
S113011061F4009906C081E08093CA0581E090E013
S113012008951092CA0581E090E008958230910507
S113013018F08130910561F4019906C081E0809343
S1130140C90581E090E008951092C90581E090E02E
S113015008958230910518F08130910561F4029977
S113016006C081E08093C80581E090E00895109274
S1130170C80581E090E008958230910518F0019758
S113018009F043C08091CB05882381F08091CA0592
S1130190811130C08091C90581112CC08091C8059E
S11301A0811128C088E08093C5052FC08091CA05BD
S11301B0811128C08091C90581111FC08091C80593
S11301C08823D9F084E08093C5051FC08091C805B9
S11301D0811110C082E08093C50517C08091C905C4
S11301E0811108C08091C805811104C081E0809309
S11301F0C5050BC01092C50508C08091C9058111C1
S1130200E5CFF8CF8111EACFF5CF80E090E00895F3
S1130210181619065CF00895000021503109E1F721
S11302204F5F5F4F8417950719F4089540E050E03D
S113023027E033E0F1CF28988BB9299A0000299858
S113024082E090E0E5CF089581E0F5CF0895813113
S113025018F48158F0CF08958155EDCF0895289A68
S11302608BB9299A0000299881E090E0D1CF0895B4
S11302700F931F93CF93DF93182FEB01E5DF888152
S1130280882351F001E0010F812FE1DF8991E7DF3D
S1130290102F88818111F6CFDF91CF911F910F919B
S11302A008951F93CF93DF936230710509F4805F43
S11302B0FA019081992351F0EA0111E0180FC7DF88
S11302C08991CDDF812F98819111F7CFDF91CF9163
S11302D01F9108950F931F93CF93DF938B01883061
S11302E068F4880F880F880F805CA5DFE801085F39
S11302F01F4F8991B4DFC017D107D9F780E89BDF7E
S1130300DF91CF911F910F91089584E690E080DFF3
S113031088E391DF86E08FDF8FE08DDF81E08BDF84
S11303208AE090E075DF6EE475E080E0D3DF66E498
S113033075E081E0CFDF6EE375E082E0CBDF66E35A
S113034075E084E0C7DF6EE275E085E0C3DF66E256
S113035075E086E0BFCF08958CE06DDF81E077DF44
S113036085E07DDF86E073DF81E079DF82E077DF9F
S113037084E075DF80E073DF80E169DF85E06FDFB3
S113038046E555E062E070E081E08BDF87E15FDF06
S113039086E065CF0895CF93DF938B30910508F005
S11303A004C1FC01EA5BFF4F0C94A40A8091CB05C5
S11303B0882309F414C18091CA05882309F40FC164
S11303C08091C805882309F40AC18091C90588234E
S11303D009F405C11092C60582E090E0F5C22091AF
S11303E0CB052111F1C22091CA052111EDC2209142
S11303F0C9052111E9C22091C8052111E5C224DFF4
S1130400F2C02091CB05222371F03091CA0531113D
S11304100AC03091C905311106C02091C8052111C7
S1130420C4C012DFDCC08091C8058823B1F080917C
S1130430C9058111D8C02111D6C08091CA05811186
S1130440D2C08091C605882321F081E08093C6053F
S1130450CEC081E08093C605CAC08091C9058823B7
S113046009F4AFC22111BFC08091CA058111BBC07C
S11304708091C605882309F4C1C081508093C605C4
S1130480B2C08091CA05882309F4ADC08091C60525
S1130490882309F493C2D8DEA2C02091CB05211190
S11304A093C22091CA0521118FC22091C90521113F
S11304B08BC22091C805211187C2C6DEB6C08091C7
S11304C0CB05882371F08091CA058111AEC080915B
S11304D0C9058111AAC08091C8058111A6C0B4DEE6
S11304E082C08091CA05882309F49FC08091C90500
S11304F081119BC08091C805811197C0A5DE86E05B
S113050090E062C22091CB0521115EC22091CA0500
S113051021115AC22091C905211156C22091C80542
S1130520211152C21FC18091B305893120F48F5F1C
S11305308093B30517C11092B30581E08093B80589
S113054025C18091BA05882309F420C18091B8059A
S113055081111CC194C18091CB0581110DC0809182
S1130560CA05811109C08091C905811105C0809116
S1130570C805882309F483C11092BA051092B905FD
S11305808AE090E021C22091CB0521111DC2209167
S1130590CA05211119C22091C905211115C2209142
S11305A0C805211111C250DE1AC08530910509F425
S11305B03CC044F48130910591F08330910509F0F9
S11305C003C211C08830910509F4E0C08930910557
S11305D009F455C18730910509F0F6C1C3C0BCDEEA
S11305E081E090E0F1C18091C605882339F081E073
S11305F02EDE80E234DE81E12ADE06C081E127DEE0
S113060080E22DDE81E023DE85EA29DE47E655E03F
S113061061E070E082E045DE45E755E062E070E0CD
S113062082E03FDE83E090E0CFC148E755E061E03F
S113063070E081E036DE87E00ADE80E010DE48E824
S113064055E062E070E081E02CDE8CE100DE809118
S1130650C605CCE1D4E08C9FF0018D9FF00D1124F0
S1130660E55BF54F208131813695279536952795A1
S1130670ABE7B4E172D7AC01569547959A01ADEC5E
S1130680BCEC6BD7969587959695879596958795A7
S11306909C01220F331F880F991F880F991F880F01
S11306A0991F820F931F9A01281B390BC901805D82
S11306B0D6DD8091C6058C9FF0018D9FF00D11242D
S11306C0E55BF54F20813181ADECBCEC46D7AC0144
S11306D05695479556954795569547959A013DD712
S11306E09695879596958795969587959C01220F63
S11306F0331F880F991F880F991F880F991F820F26
S1130700931F9A01281B390BC901805DA8DD8091D4
S1130710C6058C9FF0018D9FF00D1124E55BF54F0C
S1130720408151819A01ADECBCEC17D79695879521
S113073096958795969587959C01220F331F880F70
S1130740991F880F991F880F991F820F931F9A0171
S1130750281B390BC901805D82DD81E278DD85E0EB
S113076090E032C16DE875E081E082DD89E06FDD03
S1130770C3ECD5E08881805D72DD8881805D6FDDAA
S11307808881805D6CDD87E090E01EC18091B905B1
S1130790882309F410C189E05ADD4091C3055091C2
S11307A0C4059A01ADECBCECD8D696958795969580
S11307B08795969587959C01220F331F880F991F63
S11307C0880F991F880F991F820F931F9A01281B66
S11307D0390BC901805D43DD2091C3053091C40507
S11307E0ADECBCECBAD6AC015695479556954795F9
S11307F0569547959A01B1D696958795969587957E
S1130800969587959C01220F331F880F991F880F97
S1130810991F880F991F820F931F9A01281B390B68
S1130820C901805D1CDD2091C3053091C405369556
S1130830279536952795ABE7B4E18FD6AC0156954D
S113084047959A01ADECBCEC88D69695879596951C
S11308508795969587959C01220F331F880F991FC2
S1130860880F991F880F991F820F931F9A01281BC5
S1130870390BC901805DF3DC88E090E0A5C02091CC
S1130880C6058CE194E0289FF001299FF00D112406
S1130890E55BF54F208131818091C3059091C405BA
S11308A02817390708F07EC0CFDC64E975E081E0E1
S11308B0DFDC8CE0CCDC2091C3053091C405369597
S11308C0279536952795ABE7B4E147D6AC01569505
S11308D047959A01ADECBCEC40D6969587959695D4
S11308E08795969587959C01220F331F880F991F32
S11308F0880F991F880F991F820F931F9A01281B35
S1130900390BC901805DABDC2091C3053091C4056E
S1130910ADECBCEC22D6AC0156954795569547955F
S1130920569547959A0119D69695879596958795E4
S1130930969587959C01220F331F880F991F880F66
S1130940991F880F991F820F931F9A01281B390B37
S1130950C901805D84DC4091C3055091C4059A01AE
S1130960ADECBCECFAD596958795969587959695BA
S113097087959C01220F331F880F991F880F991F99
S1130980880F991F820F931F9A01281B390BC901E5
S1130990805D65DC6091C30581E090E0F5D589E078
S11309A090E012C040EA55E062E070E081E079DC5A
S11309B089E090E009C088E090E006C084E090E01F
S11309C003C0211110CE5DCDDF91CF9108956093C6
S11309D02205709323058093240590932505609345
S11309E0CC057093CD058093CE059093CF050895E3
S11309F08BE0809381008DE790E090938900809351
S1130A00880082E080936F00109285001092840029
S1130A108091220590912305A0912405B09125058C
S1130A208093CC059093CD05A093CE05B093CF05CC
S1130A308FB780688FBF0895EF92FF920F931F9333
S1130A40CF93DF9381E08093D005C1EDD5E00F2EE5
S1130A50F1E3EF2EF6E0FF2EF02D8E014E815F8143
S1130A60688579858A819B81AC81BD814817590746
S1130A706A077B0758F0EA85FB8588819981099587
S1130A80998388831E821F8218861986F8018681BD
S1130A909781A085B1850596A11DB11D8683978395
S1130AA0A087B1872C96CE15DF05B9F6DF91CF91DB
S1130AB01F910F91FF90EF9008951F920F920FB620
S1130AC00F9211240BB60F922F933F934F935F9382
S1130AD06F937F938F939F93AF93BF93EF93FF9302
S1130AE08091CC059091CD05A091CE05B091CF0514
S1130AF00197A109B1098093CC059093CD05A093EA
S1130B00CE05B093CF05892B8A2B8B2B89F494DFE8
S1130B108091220590912305A0912405B09125058B
S1130B208093CC059093CD05A093CE05B093CF05CB
S1130B30FF91EF91BF91AF919F918F917F916F91B1
S1130B405F914F913F912F910F900BBE0F900FBE6D
S1130B500F901F9018953A9A3B9A3C9A0895429A9E
S1130B60089542980895439A43980895449A81E0D9
S1130B7090E0FC013197F1F744980197F1F708955B
S1130B80CF93DF93D82FC8E0DD2314F4E8DF01C04E
S1130B90E8DFE9DFDD0FC150B9F7E8DFDF91CF917E
S1130BA00895EF92FF920F931F93CF93DF938130B9
S1130BB0910559F01CF4009781F119C08230910518
S1130BC069F08330910549F112C08091B8058823FA
S1130BD021F11092B2051092B10514C08091BA05AA
S1130BE0811116C08091B80581110CC011C08230EA
S1130BF0910541F08330910559F08130910509F058
S1130C00DCC00BC00BEB15E023EC35E0F8013AC077
S1130C10EBEBF5E083EC95E0C2C08091CB05882333
S1130C2049F000E011E0C0E0D0E06894EE24E7F879
S1130C30F12C0DC08091CA058111F3CF8091C905B3
S1130C408111EFCF8091C8058111EBCF14C0C7018A
S1130C500C2E02C0959587950A94E2F791DFF8016E
S1130C6081918F0180958CDF83E090E0D1DA219629
S1130C70C830D10561F780E083DF80E081DF81E067
S1130C8090E09BC08081880F8193E217F307D1F72E
S1130C902091C60530E08091C70590E04091B205EF
S1130CA06CE174E0269FF001279FF00D369FF00D54
S1130CB01124E80FF91FE757F74F50814517E0F566
S1130CC0269FF001279FF00D369FF00D11248E0F03
S1130CD09F1FFC01EB54F64F8081813049F4EBEB0C
S1130CE0F5E080818160808381818160818320C07F
S1130CF0823049F4EBEBF5E0828181608283838169
S1130D008160838315C0843049F4EBEBF5E0848182
S1130D10816084838581816085830AC0883041F441
S1130D20EBEBF5E086818160868387818160878330
S1130D304F5F4093B2053AC04091B1056CE174E055
S1130D40269FF001279FF00D369FF00D11248E0F82
S1130D509F1FFC01E15EF64F8081481720F44F5F2E
S1130D604093B10523C01092B2051092B1051EC084
S1130D70C7010C2E02C0959587950A94E2F700DF0F
S1130D80F80181918F018095FBDE85E090E040DAE7
S1130D902196C830D10561F782E090E00EC011922F
S1130DA0E817F907E1F783E090E007C0C0E0D0E07E
S1130DB06894EE24E7F8F12CDBCFDF91CF911F91FB
S1130DC00F91FF90EF900895CF92DF92EF92FF92F0
S1130DD06B017C019B01AC016091B4057091B50578
S1130DE08091B6059091B70536D2882309F452C094
S1130DF020E030E0A901C701B6012DD2811106C05F
S1130E00E1E9F0E080818870808305C0E1E9F0E0E9
S1130E1080818360808328E539E344E75FE3C70189
S1130E20B60119D288233CF48FEF9FEF9093990079
S1130E308093980023C020E034E244EF56E4C701D5
S1130E40B6011BD318162CF4109299001092980036
S1130E5015C020E030E040E053E4C701B60111D3EF
S1130E609B01AC0160E074E284EF9AE4F8D15FD2B4
S1130E7061507109709399006093980010929500E5
S1130E8010929400C092B405D092B505E092B605D4
S1130E90F092B705FF90EF90DF90CF90089580E433
S1130EA0809390008BE08093910060E070E0CB0130
S1130EB08BCF089510929000109291000895CF93D3
S1130EC08130910559F01CF40097F1F012C0823082
S1130ED0910551F083309105B9F00BC08091B805AC
S1130EE0882391F0DCDF1BC08091BA058111A3C077
S1130EF016C08230910599F08330910509F49BC0A6
S1130F008130910509F09EC01092B0051092AF0592
S1130F101092C4051092C30581E090E093C08091C3
S1130F20C60590E04091C705642F70E02CE134E0E1
S1130F30829FF001839FF00D929FF00D1124E60F24
S1130F40F71FE757F74F30812091B005231708F0BA
S1130F5041C02CE134E0829FF001839FF00D929F09
S1130F60F00D1124E60FF71FEB54F64FC081C09328
S1130F70AE0527E031E0829FF001839FF00D929F40
S1130F80F00D1124E60FF71FEE0FFF1FEE0FFF1FEA
S1130F90EF5CF94F608171818281938115DF8091CB
S1130FA0C505C8130DC08091C3059091C405019671
S1130FB09093C4058093C30581E08093B90502C072
S1130FC01092B9058091B0058F5F8093B00582E0DF
S1130FD090E038C0C091AF05ECE1F4E08E9F900141
S1130FE08F9F300D9E9F300D1124FB01E20FF31FE4
S1130FF0E15EF64F8081C81750F460E070E0CB01E9
S1131000E3DECF5FC093AF0582E090E01BC0109297
S1131010B0051092AF05463930F44F5F4093C705D1
S113102082E090E00FC01092B80581E08093BA0589
S113103082E090E007C03EDF1092C7051092B90528
S113104083E090E0CF9108958FEF8AB91BB887B9F8
S113105018B811B882B984B915B857D97CDD80E0C5
S11310608FDD8FEF8DDD0F2EFAECCF2EF2E0DF2E29
S1131070F02D0F2EF1E32F2EF6E03F2EF02D0F2E44
S1131080F4E34F2EF2E05F2EF02D0F2EF9E86F2ED1
S1131090F8E07F2EF02D0EE911E0CFE1D9E00F2E1C
S11310A0F8E08F2EF1E09F2EF02D0F2EF5EBAF2EF2
S11310B0F9E0BF2EF02DF12CF60181919191A191CF
S11310C0B1916F01F10181939193A193B1931F01A8
S11310D0F20181912F01F30181933F01F801819184
S11310E08F018993F40181914F01F50181935F018F
S11310F081E090E041D290E0EBE4FAE091838083D8
S1131100F394F7E0FF12D8CFE1EDF5E011821082FD
S113111082E390E0A0E0B0E082839383A483B5836C
S113112086839783A087B18720E730E033872287BF
S11311301586148686879787A08BB18B828B938BB9
S1131140A48BB58B23E830E0378B268B118E108E61
S1131150828F938FA48FB58F868F978FA0A3B1A30F
S113116026E930E033A322A315A214A286A397A3F1
S1131170A0A7B1A782A793A7A4A7B5A789EA90E0DF
S113118097A786A711AA10AA8AE090E0A0E0B0E091
S113119082AB93ABA4ABB5AB86AB97ABA0AFB1AF0F
S11311A021ED35E033AF22AF15AE14AE4EE150E081
S11311B060E070E040930F065093100660931106B0
S11311C07093120640931306509314066093150609
S11311D0709316062BEC31E0309318062093170613
S11311E010921A061092190680931B0690931C06FF
S11311F0A0931D06B0931E0680931F0690932006AD
S1131200A0932106B09322062FE537E030932406FD
S11312102093230610922606109225068093270613
S113122090932806A0932906B0932A0680932B0650
S113123090932C06A0932D06B0932E068CEB90E091
S11312409093300680932F0665E070E080E090E094
S1131250BEDBCEDBFFCF9CD008F481E008950CD038
S1131260D2C0CAD040F0C1D030F021F45F3F19F0B1
S1131270B3C05111FCC0B6C0D7D098F39923C9F3B9
S11312805523B1F3951B550BBB27AA276217730788
S1131290840738F09F5F5F4F220F331F441FAA1F3C
S11312A0A9F333D00E2E3AF0E0E830D091505040FC
S11312B0E695001CCAF729D0FE2F27D0660F771FAA
S11312C0881FBB1F261737074807AB07B0E809F08C
S11312D0BB0B802DBF01FF2793585F4F2AF09E3F21
S11312E0510568F079C0C3C05F3FECF3983EDCF36E
S11312F0869577956795B795F7959F5FC9F7880F9A
S1131300911D9695879597F90895E1E0660F771FEB
S1131310881FBB1F621773078407BA0720F0621B7C
S1131320730B840BBA0BEE1F88F7E095089504D075
S11313306894B1119CC008957FD088F09F5790F0B5
S1131340B92F9927B751A0F0D1F0660F771F881FE6
S1131350991F1AF0BA95C9F712C0B13081F086D03E
S1131360B1E0089583C0672F782F8827B85F39F0DC
S1131370B93FCCF3869577956795B395D9F73EF445
S113138090958095709561957F4F8F4F9F4F0895ED
S1131390990F0008550FAA0BE0E8FEEF1616170682
S11313A0E807F907C0F012161306E407F50798F0EA
S11313B0621B730B840B950B39F40A2661F0232B03
S11313C0242B252B21F408950A2609F4A140A6957F
S11313D08FEF811D811D089597F99F6780E870E064
S11313E060E008959FEF80EC089500240A94161697
S11313F0170618060906089500240A9412161306FF
S1131400140605060895092E0394000C11F488238C
S113141052F0BB0F40F4BF2B11F460FF04C06F5FA8
S11314207F4F8F4F9F4F089557FD9058440F551F7E
S113143059F05F3F71F04795880F97FB991F61F052
S11314409F3F79F087950895121613061406551FC9
S1131450F2CF4695F1DF08C0161617061806991F35
S1131460F1CF86957105610508940895E894BB272A
S113147066277727CB0197F908958ADF08F48FEF61
S113148008950BD0C0CFB1DF28F0B6DF18F0952354
S113149009F0A2CFA7CF1124EACFC6DFA0F3959F0E
S11314A0D1F3950F50E0551F629FF001729FBB2747
S11314B0F00DB11D639FAA27F00DB11DAA1F649FF3
S11314C06627B00DA11D661F829F2227B00DA11DA6
S11314D0621F739FB00DA11D621F839FA00D611D2C
S11314E0221F749F3327A00D611D231F849F600D4D
S11314F0211D822F762F6A2F11249F5750408AF086
S1131500E1F088234AF0EE0FFF1FBB1F661F771F11
S1131510881F91505040A9F79E3F510570F05CCF51
S1131520A6CF5F3FECF3983EDCF3869577956795FD
S1131530B795F795E7959F5FC1F7FE2B880F911D2F
S11315409695879597F90895EE0FFF1F0024001CC8
S11315500BBE0790F691E02D0994A29FB001B39FB2
S1131560C001A39F700D811D1124911DB29F700DA8
S1131570811D1124911D0895F999FECF92BD81BD5D
S1131580F89A992780B50895262FF999FECF92BD30
S113159081BDF89A019700B4021639F01FBA20BD34
S11315A00FB6F894FA9AF99A0FBE0895F894FFCFFB
S11315B0040C181818180C04140102040804080078
S11315C00000000000000000000000000000000017
S11315D00000000000000000000000000000000007
S11315E000000000000000000000000000000000F7
S11315F000000000000000000000000000000000E7
S113160000000000000000000000000000000000D6
S113161000000000000000000000000000000000C6
S113162000000000000000000000000000000000B6
S113163000000000000000000000000000000000A6
S11316400000000000000000000000000000140082
S1131650000202020200000000000000000000007E
S11316600000000000000000000000000000000076
S11316700000000000000000000000000000000066
S11316800000000000000000000000000000000056
S11316900000000000000000000000000000000046
S11316A00000000000000000000000000000000036
S11316B00000000000000000000000000000000026
S11316C00000000000000000000000000000000016
S11316D00000000000000000000000000000000006
S11316E000000000140202020202020000000000D6
S11316F000000000000000000000000000000000E6
S113170000000000000000000000000000000000D5
S113171000000000000000000000000000000000C5
S113172000000000000000000000000000000000B5
S113173000000000000000000000000000000000A5
S11317400000000000000000000000000000000095
S11317500000000000000000000000000000000085
S11317600000000000000000000000000000000075
S11317700000000000000000000000000000000065
S1131780774300808A4300809B430000F7430000B6
S1131790B94300800A44000000000000000000007B
S11317A00000000000000000000000000000000035
S11317B00000000000000000000000000000000025
S11317C00000000000000000000000000000000015
S11317D00000000000000000000000000000000005
S11319D000000100000004021F001F0804000000B2
S11319E01B15110A0400040E1F0404040404040457
S11319F00404041F0E040102040804020100100878
S1131A000402020408105072657373202D20746F51
S1131A10207374617274005A454E205A454E205A00
S1131A20454E5345004E4F005072657373202D2070
S1131A30746F20706C617900486967682053636F24
S1131A4072653A00484947482053434F52453A008B
S1111A5054727920616761696E203A280000A3
S9030000FC
