:100000005DC0000079C0000077C0000075C000002E
:1000100073C0000071C000006FC000006DC0000020
:100020006BC0000069C0000067C0000065C0000030
:1000300063C000009FC400005FC000005DC00000FE
:100040005BC0000059C0000057C0000055C0000050
:1000500053C0000051C000004FC000004DC0000060
:100060004BC0000049C0000047C0000045C0000070
:1000700043C0000041C000003FC000003DC0000080
:100080003BC0000039C0000037C000002303EB0173
:1000900004021602620274028602AA02BB02C902AC
:1000A000D302F70208032303420429034204420453
:1000B0004B0342049303A803E303EC0311241FBE84
:1000C000CFEFD0E4DEBFCDBF19E0A0E0B1E0E0E9C2
:1000D000F4E100E00BBF02C007900D92A436B10717
:1000E000D9F721E1A4E6B9E001C01D92A93BB2070E
:1000F000E1F72CD70C94460A83CF8230910518F093
:100100008130910561F4039906C081E080938309F1
:1001100081E090E008951092830981E090E00895D5
:100120008230910518F08130910561F4009906C084
:1001300081E08093820981E090E008951092820925
:1001400081E090E008958230910518F081309105AA
:1001500061F4019906C081E08093810981E090E01B
:1001600008951092810981E090E008958230910510
:1001700018F08130910561F4029906C081E0809306
:10018000800981E090E008951092800981E090E07C
:1001900008958230910520F08130910509F04DC01D
:1001A00080918309882391F080918209811138C060
:1001B00080918109811134C080918009811130C002
:1001C00088E080937D0981E090E008958091820924
:1001D000811130C080918109811127C080918009EF
:1001E000882319F184E080937D0981E090E00895EF
:1001F00080918009811114C082E080937D0981E0A3
:1002000090E008958091810981110AC08091800950
:10021000811106C081E080937D0981E090E008951E
:1002200010927D0981E090E008958091810981110B
:10023000DFCFF6CF8111E6CFF3CF08951816190658
:100240005CF00895000021503109E1F74F5F5F4FE6
:100250008417950719F4089540E050E027E033E053
:10026000F1CF28988BB9299A0000299882E090E074
:10027000E5CF089581E0F5CF0895813118F48158D4
:10028000F0CF08958155EDCF0895289A8BB9299A1A
:100290000000299881E090E0D1CF08950F931F933B
:1002A000CF93DF93182FEB01E5DF8881882351F08E
:1002B00001E0010F812FE1DF8991E7DF102F8881B5
:1002C0008111F6CFDF91CF911F910F9108951F9368
:1002D000CF93DF936230710509F4805FFA0190815A
:1002E000992351F0EA0111E0180FC7DF8991CDDFA2
:1002F000812F98819111F7CFDF91CF911F910895B0
:100300000F931F93CF93DF938B01883068F4880F8E
:10031000880F880F805CA5DFE801085F1F4F899177
:10032000B4DFC017D107D9F780E89BDFDF91CF9109
:100330001F910F91089584E690E080DF88E391DFBC
:1003400086E08FDF8FE08DDF81E08BDF8AE090E059
:1003500075DF64E079E080E0D3DF6CEF78E081E086
:10036000CFDF64EF78E082E0CBDF6CEE78E084E012
:10037000C7DF64EE78E085E0C3DF6CED78E086E00F
:10038000BFCF08958CE06DDF81E077DF85E07DDF12
:1003900086E073DF81E079DF82E077DF84E075DF7C
:1003A00080E073DF80E169DF85E06FDF4CE059E0DA
:1003B00062E070E081E08BDF87E15FDF86E065CFA0
:1003C0000895CF938D30910508F034C1FC01EA5BAC
:1003D000FF4F0C94230A80918309882309F433C1C9
:1003E00080918209882309F42EC180918009882395
:1003F00009F429C180918109882309F424C110924C
:100400007E0982E090E03EC22091830921113AC228
:1004100020918209211136C220918109211132C215
:100420002091800921112EC225DF13C1209183095B
:10043000222371F03091820931110AC03091810973
:10044000311106C0209180092111F4C013DFFBC0D7
:10045000809180098823B1F0809181098111F9C0D0
:100460002111F7C0809182098111F3C080917E092A
:10047000882321F081E080937E09EFC081E08093A2
:100480007E09EBC080918109882309F4F8C121110C
:10049000E0C0809182098111DCC080917E098823AF
:1004A00009F4E2C0815080937E09D3C08091820913
:1004B000882309F4CEC080917E09882309F4D0C135
:1004C000D9DEC1C0209183092111DCC120918209AC
:1004D0002111D8C1209181092111D4C12091800915
:1004E0002111D0C1C7DED7C0209183092111CAC113
:1004F000209182092111C6C1209181092111C2C117
:10050000209180092111BEC1B5DEA3C0809183096D
:10051000882379F0809182098111BDC08091810981
:100520008111B9C0809180098111B5C085E090E04A
:10053000A9C180918209882309F4ADC08091810905
:100540008111A9C0809180098111A5C093DE87E047
:1005500090E098C120918309211194C120918209D2
:10056000211190C12091810921118CC12091800914
:10057000211188C1D8C080916B09893120F48F5F27
:1005800080936B09D0C010926B0981E08093700951
:10059000DFC080917209882309F4DAC08091700964
:1005A0008111D6C010C190917C0980917B09981768
:1005B00030F410927209109271095CDE0DC18091C5
:1005C000830981110DC080918209811109C0809138
:1005D0008109811105C080918009882309F4F3C045
:1005E00010927209109271098CE090E04BC18091D9
:1005F0008309811138C180918209811137C18091AD
:100600008109811136C180918009811135C1E4C011
:1006100020918309211136C120918209211132C113
:100620002091810921112EC12091800921112AC117
:1006300021DE09C0FC013197EB30F10508F022C141
:10064000ED5AFF4F00C710927B099CDE81E090E0DD
:1006500019C180917E09882339F081E00EDE80E2A5
:1006600014DE81E10ADE06C081E107DE80E20DDEF4
:1006700081E003DE85EA09DE4DE159E061E070E0EA
:1006800082E025DE4BE259E062E070E082E01FDEAE
:1006900083E090E0F7C04EE259E061E070E081E075
:1006A00016DE87E0EADD80E0F0DD4EE359E062E04F
:1006B00070E081E00CDE8CE1E0DD80917C0999E264
:1006C000899F812D1124CDEC82958F70805DDDDDB9
:1006D00080917C098C9F812D112486958695869525
:1006E0008C9F912D1124969596959695990F292F6B
:1006F000220F220F920F891B805DC7DD80917C093C
:100700008C9FC12D1124C695C695C695CC0F9C2FE4
:10071000990F990FC90F8C1B805DB7DD81E2ADDDAC
:1007200086E090E0AFC063E479E081E0B7DD89E086
:10073000A4DD80917B09805DA8DD80917B09805DCF
:10074000A4DD80917B09805DA0DD88E090E09AC007
:1007500080917109882309F480C089E08EDD809141
:100760007B0999E2899F812D1124CDEC82958F70B0
:10077000805D8BDD80917B098C9F812D1124869576
:10078000869586958C9F912D112496959695969594
:10079000990F292F220F220F920F891B805D75DD83
:1007A00080917B098C9FC12D1124C695C695C69555
:1007B000CC0F9C2F990F990FC90F8C1B805D65DDA5
:1007C00089E090E05FC04AE459E062E070E081E0D7
:1007D0007EDD8AE090E056C067E579E081E05EDD8D
:1007E0008DE04BDD80917B0999E2899F812D112459
:1007F000CDEC82958F70805D48DD80917B098C9F68
:10080000812D11248695869586958C9F912D112496
:10081000969596959695990F292F220F220F920F54
:10082000891B805D32DD80917B098C9FC12D112455
:10083000C695C695C695CC0F9C2F990F990FC90FD9
:100840008C1B805D22DD60917B0960937C0981E0D7
:1008500090E00AD68BE090E015C089E090E012C0ED
:1008600084E090E00FC08CE090E00CC08CE090E061
:1008700009C08CE090E006C08CE090E003C021113C
:10088000E8CE14CECF9108956093D8087093D9081C
:100890008093DA089093DB0860938409709385094C
:1008A000809386099093870908958BE08093810057
:1008B0008DE790E0909389008093880082E0809398
:1008C0006F0010928500109284008091D80890915A
:1008D000D908A091DA08B091DB088093840990933D
:1008E0008509A0938609B09387098FB780688FBF69
:1008F0000895EF92FF920F931F93CF93DF9381E0C0
:1009000080938809C9E8D9E00F2EF9EEEF2EF9E0BF
:10091000FF2EF02D8E014E815F81688579858A8159
:100920009B81AC81BD81481759076A077B0758F046
:10093000EA85FB85888199810995998388831E8240
:100940001F8218861986F80186819781A085B18556
:100950000596A11DB11D86839783A087B1872C962C
:10096000CE15DF05B9F6DF91CF911F910F91FF9062
:10097000EF9008951F920F920FB60F9211240BB6AD
:100980000F922F933F934F935F936F937F938F9328
:100990009F93AF93BF93EF93FF93809184099091BE
:1009A0008509A0918609B09187090197A109B1092C
:1009B0008093840990938509A0938609B093870951
:1009C000892B8A2B8B2B89F494DF8091D808909106
:1009D000D908A091DA08B091DB088093840990933C
:1009E0008509A0938609B0938709FF91EF91BF9184
:1009F000AF919F918F917F916F915F914F913F91B7
:100A00002F910F900BBE0F900FBE0F901F90189557
:100A10003A9A3B9A3C9A0895429A089542980895CA
:100A2000439A43980895449A81E090E0FC013197FD
:100A3000F1F744980197F1F70895CF93DF93D82FFA
:100A4000C8E0DD2314F4E8DF01C0E8DFE9DFDD0FF3
:100A5000C150B9F7E8DFDF91CF910895EF92FF928F
:100A60000F931F93CF93DF938130910559F01CF4BE
:100A7000009781F119C08230910569F083309105AA
:100A800049F112C080917009882321F110926A09FE
:100A90001092690914C080917209811116C0809169
:100AA000700981110CC011C08230910541F0833072
:100AB000910559F08130910509F0DCC00BC003E7C6
:100AC00019E02BE739E0F8013AC0E3E7F9E08BE7FA
:100AD00099E0C2C080918309882349F000E011E0C9
:100AE000C0E0D0E06894EE24E7F8F12C0DC08091CE
:100AF00082098111F3CF809181098111EFCF80911B
:100B000080098111EBCF14C0C7010C2E02C095954E
:100B100087950A94E2F791DFF80181918F01809522
:100B20008CDF83E090E08ADB2196C830D10561F745
:100B300080E083DF80E081DF81E090E09BC0808106
:100B4000880F8193E217F307D1F720917E0930E0F7
:100B500080917F0990E040916A0960ED77E0269FDF
:100B6000F001279FF00D369FF00D1124E80FF91FBB
:100B7000EF52F24F50814517E0F5269FF001279F75
:100B8000F00D369FF00D11248E0F9F1FFC01EB53CB
:100B9000F04F8081883049F4E3E7F9E08781836092
:100BA000878386818360868320C0843049F4E3E7AD
:100BB000F9E085818360858384818360848315C0A7
:100BC000823049F4E3E7F9E08381836083838281A3
:100BD000836082830AC0813041F4E3E7F9E08181D8
:100BE000836081838081836080834F5F40936A0943
:100BF0003AC04091690960ED77E0269FF001279F98
:100C0000F00D369FF00D11248E0F9F1FFC01E55350
:100C1000F14F8081481720F44F5F4093690923C04A
:100C200010926A09109269091EC0C7010C2E02C0F9
:100C3000959587950A94E2F700DFF80181918F017D
:100C40008095FBDE85E090E0F9DA2196C830D10589
:100C500061F782E090E00EC01192E817F907E1F722
:100C600083E090E007C0C0E0D0E06894EE24E7F8AD
:100C7000F12CDBCFDF91CF911F910F91FF90EF907F
:100C80000895CF92DF92EF92FF926B017C019B015E
:100C9000AC0160916C0970916D0980916E09909121
:100CA0006F0958D2882309F452C020E030E0A9012E
:100CB000C701B6014FD2811106C0E1E9F0E08081A1
:100CC0008870808305C0E1E9F0E0808183608083E3
:100CD00028E539E344E75FE3C701B6013BD2882347
:100CE0003CF48FEF9FEF909399008093980023C07E
:100CF00020E034E244EF56E4C701B6013DD31816B4
:100D00002CF4109299001092980015C020E030E069
:100D100040E053E4C701B60133D39B01AC0160E06E
:100D200074E284EF9AE41AD281D26150710970930F
:100D30009900609398001092950010929400C092D0
:100D40006C09D0926D09E0926E09F0926F09FF90E4
:100D5000EF90DF90CF90089580E4809390008BE037
:100D60008093910060E070E0CB018BCF08951092EA
:100D700090001092910008958130910559F01CF473
:100D80000097F1F012C08230910551F08330910547
:100D9000B9F00BC080917009882391F0DDDF1BC092
:100DA000809172098111CAC016C08230910599F0F4
:100DB0008330910509F4C2C08130910509F0C5C0A6
:100DC00010926809109267091092660910926509DD
:100DD00081E090E0089530917E0920917F0940EDF7
:100DE00057E0349FC001359F900D11248751964FD5
:100DF000820F911DFC01E452FA4F20812093640977
:100E0000E650FF4F9081809166098917C0F4809168
:100E10006509811114C080917D09281309C0809152
:100E20007B098F5F80937B0981E08093710902C009
:100E300010927109809166098F5F80936609909185
:100E40007E0980917F0920ED37E0929FF001939F0A
:100E5000F00D1124E751F64FE80FF11DE851FC4F5A
:100E6000908180916809891788F590917D0980911A
:100E70006409981309C080917B098F5F80937B0977
:100E800081E08093710902C01092710990917E09EE
:100E900080917F0924EF31E0929FF001939FF00D44
:100EA0001124E80FF11DEE0FFF1FEE0FFF1FE7519A
:100EB000F64F6081718182819381E3DE80916809C0
:100EC0008F5F8093680982E090E0089560E070E0B1
:100ED000CB01D7DE80917F099091670940917E090F
:100EE00020ED37E0429FF001439FF00D1124E751C0
:100EF000F64FE80FF11DEE51FB4F2081921730F4B1
:100F00009F5F9093670982E090E0089510926809CE
:100F10001092670910926609109265098A3F30F4B1
:100F20008F5F80937F0982E090E0089510927009AE
:100F300081E08093720982E090E0089518DF1092BA
:100F40007F091092710983E090E008958FEF8AB9CC
:100F50001BB887B918B811B882B984B915B8EBD9DC
:100F600057DD80E06ADD8FEF68DD81E090E074D2CC
:100F700080937C090F2EF0EFCF2EF4E0DF2EF02DC2
:100F80000F2EF9EEEF2EF9E0FF2EF02D06EF13E015
:100F900061ED7DE04CEF52E02BEC3EE082E092E030
:100FA000C5ECDFE0A8E0B1E00F2EFFEB8F2EF0E103
:100FB0009F2EF02DB12CF6014190519061907190CF
:100FC0006F01F70141925192619271927F01F80194
:100FD000A1908F01FB01A192BF01FA01A190AF0185
:100FE000F901A1929F01FC01A190CF01A992AD90BE
:100FF000F401A1924F01B394F6E9BF12DCCFE9E806
:10100000F9E01182108284E190E0A0E0B0E08283F8
:101010009383A483B58386839783A087B1872DE7C5
:1010200030E0338722871586148686879787A08BC2
:10103000B18B828B938BA48BB58B20E930E0378BFF
:10104000268B118E108E828F938FA48FB58F868FF3
:10105000978FA0A3B1A323EA30E033A322A315A264
:1010600014A286A397A3A0A7B1A782A793A7A4A71A
:10107000B5A786EB90E097A786A711AA10AA8AE0E9
:1010800090E0A0E0B0E082AB93ABA4ABB5AB86AB95
:1010900097ABA0AFB1AF2EE235E033AF22AF15AEC4
:1010A00014AE4EE150E060E070E04093C709509309
:1010B000C8096093C9097093CA094093CB0950933A
:1010C000CC096093CD097093CE0921EE31E03093C5
:1010D000D0092093CF091092D2091092D1098093A0
:1010E000D3099093D409A093D509B093D6098093DE
:1010F000D7099093D809A093D909B093DA098CEB5A
:1011000096E09093DC098093DB091092DE0910923F
:10111000DD0985E090E0A0E0B0E08093DF099093E6
:10112000E009A093E109B093E2098093E309909369
:10113000E409A093E509B093E60989EC90E0909367
:10114000E8098093E70965E070E080E090E09CDBCF
:10115000ACDBFFCF9CD008F481E008950CD0D2C066
:10116000CAD040F0C1D030F021F45F3F19F0B3C0D5
:101170005111FCC0B6C0D7D098F39923C9F35523B9
:10118000B1F3951B550BBB27AA276217730784077A
:1011900038F09F5F5F4F220F331F441FAA1FA9F330
:1011A00033D00E2E3AF0E0E830D091505040E69522
:1011B000001CCAF729D0FE2F27D0660F771F881F83
:1011C000BB1F261737074807AB07B0E809F0BB0B72
:1011D000802DBF01FF2793585F4F2AF09E3F510596
:1011E00068F079C0C3C05F3FECF3983EDCF38695AE
:1011F00077956795B795F7959F5FC9F7880F911D0C
:101200009695879597F90895E1E0660F771F881FF7
:10121000BB1F621773078407BA0720F0621B730BAA
:10122000840BBA0BEE1F88F7E095089504D06894FC
:10123000B1119CC008957FD088F09F5790F0B92FCE
:101240009927B751A0F0D1F0660F771F881F991F1B
:101250001AF0BA95C9F712C0B13081F086D0B1E06A
:10126000089583C0672F782F8827B85F39F0B93F7A
:10127000CCF3869577956795B395D9F73EF490951D
:101280008095709561957F4F8F4F9F4F0895990F6F
:101290000008550FAA0BE0E8FEEF16161706E80740
:1012A000F907C0F012161306E407F50798F0621B61
:1012B000730B840B950B39F40A2661F0232B242B36
:1012C000252B21F408950A2609F4A140A6958FEF55
:1012D000811D811D089597F99F6780E870E060E0A7
:1012E00008959FEF80EC089500240A9416161706BF
:1012F00018060906089500240A9412161306140607
:1013000005060895092E0394000C11F4882352F069
:10131000BB0F40F4BF2B11F460FF04C06F5F7F4F21
:101320008F4F9F4F089557FD9058440F551F59F008
:101330005F3F71F04795880F97FB991F61F09F3FC2
:1013400079F087950895121613061406551FF2CFEB
:101350004695F1DF08C0161617061806991FF1CF3B
:1013600086957105610508940895E894BB27662762
:101370007727CB0197F908958ADF08F48FEF089556
:101380000BD0C0CFB1DF28F0B6DF18F0952309F0FD
:10139000A2CFA7CF1124EACFC6DFA0F3959FD1F348
:1013A000950F50E0551F629FF001729FBB27F00D13
:1013B000B11D639FAA27F00DB11DAA1F649F662768
:1013C000B00DA11D661F829F2227B00DA11D621FB7
:1013D000739FB00DA11D621F839FA00D611D221F71
:1013E000749F3327A00D611D231F849F600D211D55
:1013F000822F762F6A2F11249F5750408AF0E1F0F8
:1014000088234AF0EE0FFF1FBB1F661F771F881F40
:1014100091505040A9F79E3F510570F05CCFA6CF88
:101420005F3FECF3983EDCF3869577956795B7952B
:10143000F795E7959F5FC1F7FE2B880F911D969555
:10144000879597F90895EE0FFF1F0024001C0BBE2F
:101450000790F691E02D0994F999FECF92BD81BDD8
:10146000F89A992780B50895262FF999FECF92BD55
:1014700081BDF89A019700B4021639F01FBA20BD59
:101480000FB6F894FA9AF99A0FBE0895F894FFCF20
:10149000040C181818180C041401010101010101B1
:1014A000010201010101010201010101010101012A
:1014B0000201010101010201010101010101010219
:1014C0000101010101020101010101010101010309
:1014D00001020201020101010101010101010101F9
:1014E00001010101010101010101010101010101EC
:1014F00001010101010101010101010101010101DC
:1015000001010101010101010101010101010101CB
:1015100001010100000101010201010402020101B7
:1015200001010101010101010101010104020401A4
:1015300002010101010000000000000000000000A5
:10154000000000000000000000000000000000009B
:10155000000000000000000000000000000000008B
:10156000000000000000000000000000000000007B
:10157000000000000000000000000000000000006B
:10158000000000000000000000000000000000005B
:101590000000140804020102010802040801020408
:1015A00008040804020102010802040801020404FC
:1015B00004080402010201080201080408080801E5
:1015C00002020202020801040404020201010108ED
:1015D00002010102080204010201040108010202E1
:1015E00008040201020408040402010201040208C2
:1015F00004080402010204080404080408040102A7
:10160000020204040404040102080804020804029B
:101610000102040404080204010101020108040893
:10162000080101020402010408020204010202008E
:1016300000000000000000000000000000000000AA
:10164000000000000000000000000000000000009A
:10165000000000000000000000000000000000008A
:10166000000000000000000000000000000000007A
:10167000000000000000000000000000000000006A
:101680000000000000000000000000001400000244
:101690000202020202060202020202060000020226
:1016A0000202020206020202020206000002020216
:1016B000020202060202020202060000000000020C
:1016C00002020208020404020400000202020202F2
:1016D00002020202020202020202000002020202EE
:1016E00002020202020202020202020000020202DE
:1016F00002020202020202020202020200000000D2
:101700000202020202020C0202020E02040204247D
:1017100006040202020202020202020202020202A3
:101720001A1C060218020402040000000000000057
:1017300000000000000000000000000000000000A9
:101740000000000000000000000000000000000099
:101750000000000000000000000000000000000089
:101760000000000000000000000000000000000079
:101770000000000000000000000000000000000069
:101780000000000000001402020202020202020233
:101790000202020202020202020202020202020229
:1017A0000202020202020202020202020202020219
:1017B0000202020202020202020202020202020209
:1017C00002020202020202020202020202020202F9
:1017D00002020202020202020202020202020202E9
:1017E00002020202020202020202020202020202D9
:1017F00002020202020202020202020202020202C9
:101800000C060A020E020202020C0204020202028A
:10181000020202020202020202020804060204029A
:1018200002020200000000000000000000000000B2
:1018300000000000000000000000000000000000A8
:101840000000000000000000000000000000000098
:101850000000000000000000000000000000000088
:101860000000000000000000000000000000000078
:101870000000000000000000000000000000000068
:10188000000000000000774300808A4300809B43F3
:101890000000F7430000B94300800A440000B94348
:1018A00000801B44000039440000F74300801B44C3
:1018B0000000F74300C0244400801B440000F743AD
:1018C0000000774300808A4300809B430000F74379
:1018D0000000B94300800A440000B94300801B4463
:1018E000000039440000F74300801B440000F74328
:1018F00000C0244400801B440000F74300007743ED
:1019000000808A4300809B430000F7430000B943F6
:1019100000800A440000B94300801B4400003944A1
:101920000000F74300801B440000F74300C024443C
:1019300000801B440000F74300800A4400801B44E1
:101940000000394400801B4400800A440000F74333
:1019500000800A440000B9430000F7430000B94387
:101960000000B9430000B943000039440000394485
:10197000000039440000774300808A4300809B4385
:101980000000F7430000B94300800A440000B94357
:1019900000801B440000B9C300C024440000B943C8
:1019A00000801B440000B943000039440000B943E3
:1019B0000000F7430000B9430000774300808A43EA
:1019C00000809B430000F7430000B94300800A44B5
:1019D0000000B94300801B440000B94300C0244408
:1019E0000000B94300801B440000B94300800A4452
:1019F0000000B94300801B440000F743000077C398
:101A000000808A4300809B430000F7430000B943F5
:101A100000800A440000B94300801B440000B94321
:101A200000C024440000B94300801B440000B943B7
:101A3000000039440000B9430000F7430000B943F7
:101A400000800A4400801B440000394400801B448D
:101A500000800A440000F74300800A440000B943B4
:101A60000000F7430000B943000039440000394347
:101A70000000774300808A43000077430000394329
:101A80000000A54300809B4300808A430000774309
:101A90000000774300808A4300809B4300808A4394
:101AA00000809B430000A54300809B4300808A4345
:101AB0000000774300808A4300809B4300809B4363
:101AC00000809B430000A54300809B4300808A4325
:101AD00000007743000077430000774300809B437A
:101AE00000809B4300809B430000A54300809B43F4
:101AF000000077430000000000000000000000002C
:101B000000000000000000000000000000000000D5
:101B100000000000000000000000000000000000C5
:101B200000000000000000000000000000000000B5
:101B300000000000000000000000000000000000A5
:101B40000000000000000000000000000000000095
:101B50000000000000000000000000000000000085
:101B60000000000000000000000000000000000075
:101B70000000000000000000000000000000000065
:101B80000000000000000000000000000000000055
:101B90000000000000000000000000000000000045
:101BA0000000000000000000000000000000000035
:101BB0000000000000000000000000000000000025
:101BC0000000000000000000000000000000000015
:101BD0000000000000000000000000000000000005
:101BE00000000000000000000000000000000000F5
:101BF00000000000000000000000000000000000E5
:101C000000000000000000000000000000000000D4
:101C100000000000000000000000000000000000C4
:101C200000000000000000000000000000000000B4
:101C300000000000000000000000000000000000A4
:101C40000000000000000000000000000000000094
:101C50000000000000000000000000000000000084
:101C600000000000000000000100000004021F004E
:101C70001F08040000001B15110A0400040E1F04B5
:101C80000404040404040404041F0E0401020408F0
:101C90000402010010080402020408105072657367
:101CA00073202D20746F207374617274005A454E36
:101CB000205A454E205A454E5345004E4F00507213
:101CC000657373202D20746F20706C6179004869F2
:101CD00067682053636F72653A00547279206167B8
:101CE00061696E203A2800484947482053434F52C3
:041CF00045213A0050
:00000001FF
