S01B000052687974686D5F47616D655F50726F6A6563742E737265637E
S113000051C000006DC000006BC0000069C000005A
S113001067C0000065C0000063C0000061C000004C
S11300205FC000005DC000005BC0000059C000005C
S113003057C0000055C5000053C0000051C0000067
S11300404FC000004DC000004BC0000049C000007C
S113005047C0000045C0000043C0000041C000008C
S11300603FC000003DC000003BC0000039C000009C
S113007037C0000035C0000033C0000031C00000AC
S11300802FC000002DC000002BC000000203D701C8
S1130090F00102024E02600272029602A702B50249
S11300A0BF02D70211241FBECFEFD0E4DEBFCDBF05
S11300B016E0A0E0B1E0E6E8F6E100E00BBF02C024
S11300C007900D92A434B107D9F72BE0A4E4B6E06D
S11300D001C01D92AB37B207E1F7FBD70C94410B7B
S11300E08FCF8230910518F08130910561F4039926
S11300F006C081E08093630681E090E00895109249
S1130100630681E090E008958230910518F0813013
S1130110910561F4009906C081E08093620681E054
S113012090E008951092620681E090E00895823094
S1130130910518F08130910561F4019906C081E0C0
S11301408093610681E090E008951092610681E059
S113015090E008958230910518F08130910561F4A2
S1130160029906C081E08093600681E090E00895E2
S11301701092600681E090E008958230910518F0B5
S1130180019709F043C080916306882381F0809130
S11301906206811130C08091610681112CC080916A
S11301A06006811128C088E080935D062FC080918D
S11301B06206811128C08091610681111FC080915F
S11301C060068823D9F084E080935D061FC0809187
S11301D06006811110C082E080935D0617C0809193
S11301E06106811108C080916006811104C081E01C
S11301F080935D060BC010925D0608C08091610675
S11302008111E5CFF8CF8111EACFF5CF80E090E0FE
S11302100895181619065CF008950000215031095C
S1130220E1F74F5F5F4F8417950719F4089540E095
S113023050E027E033E0F1CF28988BB9299A0000E9
S1130240299882E090E0E5CF089581E0F5CF089504
S1130250813118F48158F0CF08958155EDCF089578
S1130260289A8BB9299A0000299881E090E0D1CF8F
S113027008950F931F93CF93DF93182FEB01E5DFBE
S11302808881882351F001E0010F812FE1DF8991FA
S1130290E7DF102F88818111F6CFDF91CF911F9175
S11302A00F9108951F93CF93DF936230710509F482
S11302B0805FFA019081992351F0EA0111E0180F4F
S11302C0C7DF8991CDDF812F98819111F7CFDF911D
S11302D0CF911F9108950F931F93CF93DF938B01B9
S11302E0883068F4880F880F880F805CA5DFE801E8
S11302F0085F1F4F8991B4DFC017D107D9F780E891
S11303009BDFDF91CF911F910F91089584E690E0D8
S113031080DF88E391DF86E08FDF8FE08DDF81E08F
S11303208BDF8AE090E075DF64EE75E080E0D3DF78
S11303306CED75E081E0CFDF64ED75E082E0CBDF4A
S11303406CEC75E084E0C7DF64EC75E085E0C3DF46
S11303506CEB75E086E0BFCF08958CE06DDF81E043
S113036077DF85E07DDF86E073DF81E079DF82E09F
S113037077DF84E075DF80E073DF80E169DF85E0AB
S11303806FDF4CEE55E062E070E081E08BDF87E1E7
S11303905FDF86E065CF0895CF93DF938C309105BE
S11303A008F017C1FC01EA5BFF4F0C940F0B80911E
S11303B06306882309F426C180916206882309F420
S11303C021C180916006882309F41CC180916106D3
S11303D0882309F417C110925E0682E090E007C3F7
S11303E020916306211103C3209162062111FFC2EB
S11303F0209161062111FBC2209160062111F7C2F0
S113040024DF04C120916306222371F03091620637
S113041031110AC030916106311106C02091600685
S11304202111D7C012DFEEC0809160068823B1F09D
S1130430809161068111EAC02111E8C080916206B1
S11304408111E4C080915E06882321F081E08093CD
S11304505E06E0C081E080935E06DCC080916106A8
S1130460882309F4C1C22111D1C08091620681118F
S1130470CDC080915E06882309F4D3C08150809357
S11304805E06C4C080916206882309F4BFC08091CF
S11304905E06882309F4A5C2D8DEB4C020916306A1
S11304A02111A5C2209162062111A1C220916106E9
S11304B021119DC220916006211199C2C6DEC8C0D7
S11304C020916306211193C22091620621118FC2EB
S11304D02091610621118BC220916006211187C2EF
S11304E0B4DE94C080916306882379F0809162061B
S11304F08111AEC0809161068111AAC0809160060D
S11305008111A6C085E090E072C2809162068823C2
S113051009F49EC08091610681119AC080916006A1
S1130520811196C092DE87E090E061C2209163065B
S113053021115DC220916206211159C220916106E8
S1130540211155C220916006211151C21EC1809112
S11305504B06893120F48F5F80934B0616C11092AD
S11305604B0681E08093500624C180915206882373
S113057009F41FC18091500681111BC193C1809160
S1130580630681110DC080916206811109C08091BA
S11305906106811105C080916006882309F482C137
S11305A010925206109251068BE090E020C22091E6
S11305B0630621111CC220916206211118C22091E8
S11305C06106211114C220916006211110C23DDE82
S11305D019C08630910509F43BC03CF48130910583
S11305E089F08330910591F002C28930910509F4B4
S11305F0E0C08A30910509F455C18830910509F0AD
S1130600F6C1C3C0AADE81E090E0F1C180915E062C
S1130610882339F081E01CDE80E222DE81E118DEED
S113062006C081E115DE80E21BDE81E011DE85EA91
S113063017DE4DEF55E061E070E082E033DE4BE021
S113064056E062E070E082E02DDE83E090E0CFC10E
S11306504EE056E061E070E081E024DE87E0F8DD02
S113066080E0FEDD4EE156E062E070E081E01ADEFB
S11306708CE1EEDD80915E06C2EBD4E08C9FF0014C
S11306808D9FF00D1124E758F44F20813181369568
S1130690279536952795ABE7B4E1CAD7AC015695B3
S11306A047959A01ADECBCECC3D796958795969582
S11306B08795969587959C01220F331F880F991F64
S11306C0880F991F880F991F820F931F9A01281B67
S11306D0390BC901805DC4DD80915E068C9FF001F9
S11306E08D9FF00D1124E758F44F20813181ADEC3A
S11306F0BCEC9ED7AC0156954795569547955695B3
S113070047959A0195D79695879596958795969549
S113071087959C01220F331F880F991F880F991FFB
S1130720880F991F820F931F9A01281B390BC90147
S1130730805D96DD80915E068C9FF0018D9FF00DAB
S11307401124E758F44F408151819A01ADECBCEC7F
S11307506FD79695879596958795969587959C01DD
S1130760220F331F880F991F880F991F880F991F15
S1130770820F931F9A01281B390BC901805D70DD1C
S113078081E266DD86E090E032C163E276E081E0FA
S113079070DD89E05DDDCBE5D6E08881805D60DDDC
S11307A08881805D5DDD8881805D5ADD88E090E030
S11307B01EC180915106882309F410C189E048DDE7
S11307C020915B0630915C063695279536952795E2
S11307D0ABE7B4E12DD7AC01569547959A01ADEC42
S11307E0BCEC26D79695879596958795969587958B
S11307F09C01220F331F880F991F880F991F880FA0
S1130800991F820F931F9A01281B390BC901805D20
S113081027DD20915B0630915C06ADECBCEC08D77B
S1130820AC015695479556954795569547959A0127
S1130830FFD69695879596958795969587959C016D
S1130840220F331F880F991F880F991F880F991F34
S1130850820F931F9A01281B390BC901805D00DDAB
S113086040915B0650915C069A01ADECBCECE0D67D
S11308709695879596958795969587959C01220FD1
S1130880331F880F991F880F991F880F991F820F94
S1130890931F9A01281B390BC901805DE1DC89E0B3
S11308A090E0A5C020915E0682EB94E0289FF001C1
S11308B0299FF00D1124E758F44F20813181809154
S11308C05B0690915C062817390708F07EC0BDDCF2
S11308D06AE276E081E0CDDC8CE0BADC20915B0654
S11308E030915C063695279536952795ABE7B4E1AC
S11308F09FD6AC01569547959A01ADECBCEC98D6C1
S11309009695879596958795969587959C01220F40
S1130910331F880F991F880F991F880F991F820F03
S1130920931F9A01281B390BC901805D99DC209122
S11309305B0630915C06ADECBCEC7AD6AC01569506
S1130940479556954795569547959A0171D696952C
S1130950879596958795969587959C01220F331FC9
S1130960880F991F880F991F880F991F820F931F53
S11309709A01281B390BC901805D72DC40915B062A
S113098050915C069A01ADECBCEC52D696958795D5
S113099096958795969587959C01220F331F880F0E
S11309A0991F880F991F880F991F820F931F9A010F
S11309B0281B390BC901805D53DC60915B0681E023
S11309C090E04DD68AE090E012C046E356E062E043
S11309D070E081E067DC8AE090E009C089E090E0A3
S11309E006C084E090E003C0211110CE4BCDDF910E
S11309F0CF9108956093B8057093B9058093BA05B3
S1130A009093BB05609364067093650680936606B5
S1130A109093670608958BE0809381008DE790E0C2
S1130A20909389008093880082E080936F001092F5
S1130A308500109284008091B8059091B905A09129
S1130A40BA05B091BB058093640690936506A093A4
S1130A506606B09367068FB780688FBF0895EF92DC
S1130A60FF920F931F93CF93DF9381E080936806E7
S1130A70C9E6D6E00F2EF9ECEF2EF6E0FF2EF02DAE
S1130A808E014E815F81688579858A819B81AC81E5
S1130A90BD81481759076A077B0758F0EA85FB852B
S1130AA0888199810995998388831E821F8218867B
S1130AB01986F80186819781A085B1850596A11DC7
S1130AC0B11D86839783A087B1872C96CE15DF0549
S1130AD0B9F6DF91CF911F910F91FF90EF90089598
S1130AE01F920F920FB60F9211240BB60F922F93F1
S1130AF03F934F935F936F937F938F939F93AF93A2
S1130B00BF93EF93FF938091640690916506A09143
S1130B106606B09167060197A109B109809364063E
S1130B2090936506A0936606B0936706892B8A2B7B
S1130B308B2B89F494DF8091B8059091B905A0912D
S1130B40BA05B091BB058093640690936506A093A3
S1130B506606B0936706FF91EF91BF91AF919F91A5
S1130B608F917F916F915F914F913F912F910F9052
S1130B700BBE0F900FBE0F901F9018953A9A3B9A98
S1130B803C9A0895429A089542980895439A439846
S1130B900895449A81E090E0FC013197F1F744987C
S1130BA00197F1F70895CF93DF93D82FC8E0DD23A1
S1130BB014F4E8DF01C0E8DFE9DFDD0FC150B9F765
S1130BC0E8DFDF91CF910895EF92FF920F931F9387
S1130BD0CF93DF938130910559F01CF4009781F194
S1130BE019C08230910569F08330910549F112C032
S1130BF080915006882321F110924A0610924906EA
S1130C0014C080915206811116C080915006811142
S1130C100CC011C08230910541F08330910559F028
S1130C208130910509F0DCC00BC003E516E02BE52B
S1130C3036E0F8013AC0E3E5F6E08BE596E0C2C0A1
S1130C4080916306882349F000E011E0C0E0D0E021
S1130C506894EE24E7F8F12C0DC0809162068111AE
S1130C60F3CF809161068111EFCF809160068111ED
S1130C70EBCF14C0C7010C2E02C0959587950A943A
S1130C80E2F791DFF80181918F0180958CDF83E099
S1130C9090E0BFDA2196C830D10561F780E083DFA8
S1130CA080E081DF81E090E09BC08081880F8193A8
S1130CB0E217F307D1F720915E0630E080915F06DA
S1130CC090E040914A0662EB74E0269FF001279F72
S1130CD0F00D369FF00D1124E80FF91FEF5DF64F6C
S1130CE050814517E0F5269FF001279FF00D369FB0
S1130CF0F00D11248E0F9F1FFC01E35BF54F8081E3
S1130D00883049F4E3E5F6E0878183608783868150
S1130D108360868320C0843049F4E3E5F6E085816E
S1130D208360858384818360848315C0823049F421
S1130D30E3E5F6E083818360838382818360828339
S1130D400AC0813041F4E3E5F6E081818360818368
S1130D508081836080834F5F40934A063AC040910C
S1130D60490662EB74E0269FF001279FF00D369F41
S1130D70F00D11248E0F9F1FFC01E954F64F808162
S1130D80481720F44F5F4093490623C010924A0647
S1130D90109249061EC0C7010C2E02C09595879576
S1130DA00A94E2F700DFF80181918F018095FBDE60
S1130DB085E090E02EDA2196C830D10561F782E013
S1130DC090E00EC01192E817F907E1F783E090E094
S1130DD007C0C0E0D0E06894EE24E7F8F12CDBCF44
S1130DE0DF91CF911F910F91FF90EF900895CF92D3
S1130DF0DF92EF92FF926B017C019B01AC01609149
S1130E004C0670914D0680914E0690914F068ED2FD
S1130E10882309F452C020E030E0A901C701B601DB
S1130E2085D2811106C0E1E9F0E080818870808379
S1130E3005C0E1E9F0E080818360808328E539E33F
S1130E4044E75FE3C701B60171D288233CF48FEF16
S1130E509FEF909399008093980023C020E034E2A0
S1130E6044EF56E4C701B60173D318162CF410925C
S1130E7099001092980015C020E030E040E053E45F
S1130E80C701B60169D39B01AC0160E074E284EF51
S1130E909AE450D2B7D2615071097093990060936B
S1130EA098001092950010929400C0924C06D09233
S1130EB04D06E0924E06F0924F06FF90EF90DF90C1
S1130EC0CF90089580E4809390008BE0809391000C
S1130ED060E070E0CB018BCF0895109290001092E7
S1130EE091000895CF938130910559F01CF4009737
S1130EF0F1F012C08230910551F083309105B9F0C0
S1130F000BC080915006882391F0DCDF1FC08091D4
S1130F1052068111D5C01AC082309105B9F08330D0
S1130F20910509F4CDC08130910509F0D0C010922B
S1130F3048061092470610925C0610925B061092C7
S1130F4046061092450681E090E0C1C030915E06ED
S1130F5020915F0642EB54E0349FC001359F900D11
S1130F6011248753994F820F911DFC01EC57FC4FBC
S1130F70208120934406EA56FF4F908180914606D3
S1130F808917E0F480914506811118C080915D06AF
S1130F9028130DC080915B0690915C060196909396
S1130FA05C0680935B0681E08093510602C0109238
S1130FB05106809146068F5F8093460680915E06B7
S1130FC090E040915F06642F70E022EB34E0829F52
S1130FD0F001839FF00D929FF00D1124E60FF71F8F
S1130FE0EF5DF64F3081209148062317A0F59091CC
S1130FF05D068091440698130DC080915B06909124
S11310005C06019690935C0680935B0681E0809376
S1131010510602C01092510680915F0690915E06BF
S113102022EB34E0929FF001939FF00D112494E0A1
S1131030899FE00DF11D1124E753F94F60817181FF
S113104082819381D4DE809148068F5F8093480625
S113105082E090E03CC0C0914706E2EBF4E08E9F52
S113106090018F9F300D9E9F300D1124FB01E20FE4
S1131070F31FE954F64F8081C81750F460E070E024
S1131080CB01B5DECF5FC093470682E090E01FC07E
S11310901092480610924706109246061092450692
S11310A0463930F44F5F40935F0682E090E00FC012
S11310B01092500681E08093520682E090E007C0CF
S11310C00CDF10925F061092510683E090E0CF91FE
S11310D00895CF93DF9300D000D000D0CDB7DEB712
S11310E08FEF8AB91BB887B918B811B882B984B917
S11310F015B80CD943DD80E056DD8FEF54DD0F2E9B
S1131100F0E6AF2EF3E0BF2EF02D0F2EF9ECCF2E2C
S1131110F6E0DF2EF02D0F2EFAECEF2EF2E0FF2E8C
S1131120F02D81E299E09A838983E4E3F2E0FE837F
S1131130ED830F2EF7EB8F2EF9E09F2EF02D0F2E5F
S1131140FEE96F2EF1E07F2EF02D0F2EFDE44F2EE1
S1131150FAE05F2EF02D0F2EF8E02F2EF1E03F2E57
S1131160F02D83EE9AE09C838B8310E0F50181914E
S11311709191A191B1915F01F60181939193A19312
S1131180B1936F01F70181917F01E981FA81819324
S1131190FA83E983ED81FE818191FE83ED83F4017D
S11311A081934F01F30181913F01F20181932F015A
S11311B0F10181911F01EB81FC818193FC83EB831D
S11311C081E090E044D290E0E9E7FBE09183808302
S11311D01F5F1F3359F6E9E6F6E01182108284E1BD
S11311E090E0A0E0B0E082839383A483B5838683F8
S11311F09783A087B18721E730E03387228715865C
S1131200148686879787A08BB18B828B938BA48B54
S1131210B58B24E830E0378B268B118E108E828FAD
S1131220938FA48FB58F868F978FA0A3B1A327E93F
S113123030E033A322A315A214A286A397A3A0A7E8
S1131240B1A782A793A7A4A7B5A78AEA90E097A716
S113125086A711AA10AA8AE090E0A0E0B0E082ABD1
S113126093ABA4ABB5AB86AB97ABA0AFB1AF24EE59
S113127035E033AF22AF15AE14AE4EE150E060E07E
S113128070E04093A7065093A8066093A906709354
S1131290AA064093AB065093AC066093AD067093D8
S11312A0AE062CEC31E03093B0062093AF061092DA
S11312B0B2061092B1068093B3069093B406A0933D
S11312C0B506B093B6068093B7069093B806A0937C
S11312D0B906B093BA0682E797E09093BC06809370
S11312E0BB061092BE061092BD0685E090E0A0E019
S11312F0B0E08093BF069093C006A093C106B0935C
S1131300C2068093C3069093C406A093C506B09307
S1131310C6068DEB90E09093C8068093C70665E0FF
S113132070E080E090E066DB76DBFFCF9CD008F4D1
S113133081E008950CD0D2C0CAD040F0C1D030F0C2
S113134021F45F3F19F0B3C05111FCC0B6C0D7D02F
S113135098F39923C9F35523B1F3951B550BBB2778
S1131360AA2762177307840738F09F5F5F4F220F25
S1131370331F441FAA1FA9F333D00E2E3AF0E0E81E
S113138030D091505040E695001CCAF729D0FE2F6A
S113139027D0660F771F881FBB1F261737074807FC
S11313A0AB07B0E809F0BB0B802DBF01FF279358B2
S11313B05F4F2AF09E3F510568F079C0C3C05F3F7C
S11313C0ECF3983EDCF3869577956795B795F7959A
S11313D09F5FC9F7880F911D9695879597F9089592
S11313E0E1E0660F771F881FBB1F6217730784072E
S11313F0BA0720F0621B730B840BBA0BEE1F88F73D
S1131400E095089504D06894B1119CC008957FD0EC
S113141088F09F5790F0B92F9927B751A0F0D1F0D9
S1131420660F771F881F991F1AF0BA95C9F712C063
S1131430B13081F086D0B1E0089583C0672F782F52
S11314408827B85F39F0B93FCCF3869577956795CF
S1131450B395D9F73EF490958095709561957F4F3B
S11314608F4F9F4F0895990F0008550FAA0BE0E87E
S1131470FEEF16161706E807F907C0F01216130652
S1131480E407F50798F0621B730B840B950B39F492
S11314900A2661F0232B242B252B21F408950A26F8
S11314A009F4A140A6958FEF811D811D089597F938
S11314B09F6780E870E060E008959FEF80EC0895F6
S11314C000240A941616170618060906089500241F
S11314D00A9412161306140605060895092E039499
S11314E0000C11F4882352F0BB0F40F4BF2B11F40D
S11314F060FF04C06F5F7F4F8F4F9F4F089557FD6C
S11315009058440F551F59F05F3F71F04795880F6D
S113151097FB991F61F09F3F79F087950895121604
S113152013061406551FF2CF4695F1DF08C01616B0
S113153017061806991FF1CF869571056105089461
S11315400895E894BB2766277727CB0197F9089578
S11315508ADF08F48FEF08950BD0C0CFB1DF28F0F5
S1131560B6DF18F0952309F0A2CFA7CF1124EACF54
S1131570C6DFA0F3959FD1F3950F50E0551F629FEE
S1131580F001729FBB27F00DB11D639FAA27F00DD8
S1131590B11DAA1F649F6627B00DA11D661F829FFF
S11315A02227B00DA11D621F739FB00DA11D621FE4
S11315B0839FA00D611D221F749F3327A00D611D01
S11315C0231F849F600D211D822F762F6A2F1124E3
S11315D09F5750408AF0E1F088234AF0EE0FFF1F36
S11315E0BB1F661F771F881F91505040A9F79E3F6D
S11315F0510570F05CCFA6CF5F3FECF3983EDCF36F
S1131600869577956795B795F795E7959F5FC1F7A9
S1131610FE2B880F911D9695879597F90895EE0FE7
S1131620FF1F0024001C0BBE0790F691E02D0994C7
S1131630A29FB001B39FC001A39F700D811D11240F
S1131640911DB29F700D811D1124911D0895F9996A
S1131650FECF92BD81BDF89A992780B50895262FB3
S1131660F999FECF92BD81BDF89A019700B4021694
S113167039F01FBA20BD0FB6F894FA9AF99A0FBE42
S10916800895F894FFCF69
S1131686040C181818180C041401010101010101B5
S1131696010201010101010201010101010101012E
S11316A6020101010101020101010101010101021D
S11316B6010101010102010101010101010101030D
S11316C60102020102010100000000000000000006
S11316D60000000000000000000000000000000000
S11316E600000000000000000000000000000000F0
S11316F600000000000000000000000000000000E0
S113170600000000000000000000000000000000CF
S113171600000000000000000000000000001408A3
S11317260402010201080204080102040804080470
S11317360201020108020408010204040408040266
S11317460102010802010804080808010202020253
S11317560208010404040202010101080200000057
S1131766000000000000000000000000000000006F
S1131776000000000000000000000000000000005F
S1131786000000000000000000000000000000004F
S1131796000000000000000000000000000000003F
S11317A6000000000000000000000000000000002F
S11317B600000000140000020202020202060202F5
S11317C602020206000002020202020206020202EB
S11317D602020600000202020202020602020202DB
S11317E602060000000000020202020802040402CB
S11317F604000000000000000000000000000000DB
S113180600000000000000000000000000000000CE
S113181600000000000000000000000000000000BE
S113182600000000000000000000000000000000AE
S1131836000000000000000000000000000000009E
S11318460000000000000000000014020202020270
S1131856020202020202020202020202020202025E
S1131866020202020202020202020202020202024E
S1131876020202020202020202020202020202023E
S1131886020202020202020202000000000000003C
S1131896000000000000000000000000000000003E
S11318A6000000000000000000000000000000002E
S11318B6000000000000000000000000000000001E
S11318C6000000000000000000000000000000000E
S11318D600000000000000000000000000000000FE
S11318E6000000000000774300808A4300809B4389
S11318F60000F7430000B94300800A440000B943DE
S113190600801B44000039440000F74300801B4458
S11319160000F74300C0244400801B440000F74342
S11319260000774300808A4300809B430000F7430E
S11319360000B94300800A440000B94300801B44F8
S1131946000039440000F74300801B440000F743BD
S113195600C0244400801B440000F7430000774382
S113196600808A4300809B430000F7430000B9438C
S113197600800A440000B94300801B440000394437
S11319860000F74300801B440000F74300C02444D2
S113199600801B440000F74300800A4400801B4477
S11319A60000394400801B4400800A440000F743C9
S11319B600800A440000B9430000F7430000B9431D
S11319C60000B9430000B94300003944000039441B
S11319D60000394400007743000083430000000000
S11319E600000000000000000000000000000000ED
S11319F600000000000000000000000000000000DD
S1131A0600000000000000000000000000000000CC
S1131A1600000000000000000000000000000000BC
S1131A2600000000000000000000000000000000AC
S1131A36000000000000000000000000000000009C
S1131A46000000000000000000000000000000008C
S1131A56000000000000000000000000000000007C
S1131A66000000000000000000000000000000006C
S1131A76000000000000000000000000000000005C
S1131A86000000000000000000000000000000004C
S1131A96000000000000000000000000000000003C
S1131AA6000000000000000000000000000000002C
S1131AB6000000000000000000000000000000001C
S1131AC6000000000000000000000000000000000C
S1131AD600000000000000000000000000000000FC
S1131AE600000000000000000000000000000000EC
S1131AF600000000000000000000000000000000DC
S1131B0600000000000000000000000000000000CB
S1131B1600000000000000000000000000000000BB
S1131B2600000000000000000000000000000000AB
S1131B3600000000000000000100000004021F0075
S1131B461F08040000001B15110A0400040E1F04DC
S1131B560404040404040404041F0E040102040817
S1131B66040201001008040202040810507265738E
S1131B7673202D20746F207374617274005A454E5D
S1131B86205A454E205A454E5345004E4F0050723A
S1131B96657373202D20746F20706C617900486919
S1131BA667682053636F72653A0048494748205373
S1131BB6434F52453A0054727920616761696E2039
S1071BC63A280000B5
S9030000FC
