S01B000052687974686D5F47616D655F50726F6A6563742E737265637E
S113000061C000007EC000007CC000007AC0000017
S113001078C0000076C0000074C0000072C0000008
S113002070C000006EC000006CC000006AC0000018
S113003068C0000078C5000064C0000062C0000011
S113004060C000005EC000005CC000005AC0000038
S113005058C0000056C0000054C0000052C0000048
S113006050C000004EC000004CC000004AC0000058
S113007048C0000046C0000044C0000042C0000068
S113008040C000003EC000003CC000006703F20115
S1130090060218027702650289029B02BF02E3028C
S11300A0F40202030C033A034B03670319056F03BD
S11300B01905190519059103F303190555046A0473
S11300C0A504AE0411241FBECFEFD0E4DEBFCDBF24
S11300D010E1A0E0B1E0ECE1F7E100E00BBF02C009
S11300E007900D92AC33B107D9F720E2ACE3B0E14D
S11300F001C01D92A436B207E1F70E948D080C944A
S11301008C0B7ECF8230910518F08130910561F41B
S1130110039906C081E080935A1081E090E008952D
S113012010925A1081E090E008958230910518F001
S11301308130910561F4009906C081E080935910E3
S113014081E090E008951092591081E090E00895C4
S11301508230910518F08130910561F4019906C04F
S113016081E08093581081E090E008951092581037
S113017081E090E008958230910518F08130910576
S113018061F4029906C081E08093571081E090E009
S113019008951092571081E090E0089582309105FF
S11301A020F08130910509F04DC080915A108823C8
S11301B091F080915910811138C0809158108111AB
S11301C034C080915710811130C088E0809354105E
S11301D081E090E0089580915910811130C08091A0
S11301E05810811127C080915710882319F184E099
S11301F08093541081E090E008958091571081110C
S113020014C082E08093541081E090E008958091BE
S1130210581081110AC080915710811106C081E0E5
S11302208093541081E090E008951092541081E07E
S113023090E00895809158108111DFCFF6CF81119D
S1130240E6CFF3CF0895181619065CF00895000060
S113025021503109E1F74F5F5F4F8417950719F477
S1130260089540E050E027E033E0F1CF28988BB9BF
S1130270299A0000299882E090E0E5CF089581E072
S1130280F5CF0895813118F48158F0CF0895815540
S1130290EDCF0895289A8BB9299A0000299881E016
S11302A090E0D1CF08950F931F93CF93DF93182F2E
S11302B0EB01E5DF8881882351F001E0010F812FF4
S11302C0E1DF8991E7DF102F88818111F6CFDF917B
S11302D0CF911F910F9108951F93CF93DF936230B5
S11302E0710509F4805FFA019081992351F0EA01C4
S11302F011E0180FC7DF8991CDDF812F988191110B
S1130300F7CFDF91CF911F9108950F931F93CF9350
S1130310DF938B01883068F4880F880F880F805C26
S1130320A5DFE801085F1F4F8991B4DFC017D1072B
S1130330D9F780E89BDFDF91CF911F910F9108954A
S113034084E690E080DF88E391DF86E08FDF8FE052
S11303508DDF81E08BDF8AE090E075DF6AED7FE07E
S113036080E0D3DF62ED7FE081E0CFDF6AEC7FE005
S113037082E0CBDF62EC7FE084E0C7DF6AEB7FE002
S113038085E0C3DF62EB7FE086E0BFCF08958CE0B9
S11303906DDF81E077DF85E07DDF86E073DF81E07C
S11303A079DF82E077DF84E075DF80E073DF80E16E
S11303B069DF85E06FDF42EE5FE062E070E081E0DC
S11303C08BDF87E15FDF86E065CF08950F931F938E
S11303D0CF938F30910508F070C1FC01EA5BFF4FA9
S11303E00C94690B80915A10882309F470C1809190
S11303F05910882309F46BC180915710882309F49C
S113040066C1809158108111FFC261C120915A10B8
S113041021110FC32091591021110BC320915810A1
S1130420211107C320915710211103C328DF57C19D
S113043020915A10222371F03091591031110AC0C1
S113044030915810311106C020915710211135C137
S113045016DF3DC1809157108823B1F08091581068
S113046081113DC121113BC180915910811137C1C6
S113047080915510882321F081E08093551033C179
S113048081E0809355102FC180915810882309F47E
S1130490CDC2211124C180915910811120C18091B4
S11304A05510882309F426C181508093551017C133
S11304B080915910882309F412C180915510882322
S11304C009F4A5C285E090E0B4C220915A1021112C
S11304D0B0C2209159102111ACC2209158102111A1
S11304E0A8C2209157102111A4C2C9DE7CC1209159
S11304F05A1021119EC22091591021119AC22091A3
S11305005810211196C220915710211192C2B7DEC2
S113051008C120915A1021118CC220915910211127
S113052088C220915810211184C2209157102111A2
S113053080C2A5DED4C080915A10882379F08091BE
S113054059108111EEC0809158108111EAC0809138
S113055057108111E6C086E090E06BC2809159107B
S1130560882309F4DEC0809158108111DAC080918B
S113057057108111D6C083DE89E090E05AC2809181
S11305805A10882379F08091591081112CC18091DF
S11305905810811128C180915710811124C186E01F
S11305A090E047C280915910882309F41CC18091BE
S11305B05810811118C180915710811114C15FDE48
S11305C089E090E036C220915A10211132C2209164
S11305D0591021112EC22091581021112AC22091A4
S11305E05710211126C261C180914310893120F432
S11305F08F5F8093431059C11092431081E0809320
S1130600481068C180914A10882309F463C180911D
S1130610481081115FC199C12091551082ED97E076
S1130620289FF001299FF00D1124E057F74E908187
S113063080915310981730F410924A101092491078
S11306401EDE8CC180915A1081110DC08091591009
S1130650811109C080915810811105C080915710F3
S1130660882309F472C110924A10109249108EE046
S113067090E0DFC180915A108111CCC18091591052
S11306808111CBC1809158108111CAC1809157103A
S11306908111C9C163C120915A102111CAC120918D
S11306A059102111C6C1209158102111C2C12091A5
S11306B057102111BEC1E3DD0AC0FC013197ED30B2
S11306C0F10508F0B6C1EB5AFF4F0C94690B109278
S11306D05510109253105BDE81E090E0AAC1809126
S11306E05510882339F081E0CDDD80E2D3DD81E14E
S11306F0C9DD06C081E1C6DD80E2CCDD81E0C2DD7A
S113070085EAC8DD43EF5FE061E070E082E0E4DDAC
S113071041E050E162E070E082E0DEDD83E090E001
S113072088C145E050E161E070E081E0D5DD87E01B
S1130730A9DD80E0AFDD45E150E162E070E081E0F9
S1130740CBDD8CE19FDD8091551002ED17E0809F99
S1130750F001819FF00D1124E057F74E808199E25A
S1130760899F812D1124CDEC82958F70805D92DD5F
S113077080915510809FF001819FF00D1124E05766
S1130780F74E80818C9F812D1124869586958695C0
S11307908C9F912D1124969596959695990F292FB6
S11307A0220F220F920F891B805D74DD80915510FA
S11307B0809FF001819FF00D1124E057F74E808156
S11307C08C9FC12D1124C695C695C695CC0F9C2F20
S11307D0990F990FC90F8C1B805D5CDD81E252DD9E
S11307E087E090E026C145E050E161E070E081E0FF
S11307F073DD87E047DD80E04DDD45E150E162E0F7
S113080070E081E069DD8CE13DDD8091551002ED01
S113081017E0809FF001819FF00D1124E057F74EFF
S1130820808199E2899F812D1124CDEC82958F706E
S1130830805D30DD80915510809FF001819FF00D27
S11308401124E057F74E80818C9F812D11248695C9
S1130850869586958C9F912D1124969596959695BF
S1130860990F292F220F220F920F891B805D12DD11
S113087080915510809FF001819FF00D1124E05765
S1130880F74E80818C9FC12D1124C695C695C695BF
S1130890CC0F9C2F990F990FC90F8C1B805DFADC2C
S11308A081E2F0DC88E090E0C4C06AE170E181E0BC
S11308B0FADC89E0E7DC80915310805DEBDC809109
S11308C05310805DE7DC80915310805DE3DC8AE0A7
S11308D090E0AFC080914910882309F492C089E068
S11308E0D1DC8091531099E2899F812D1124CDECA4
S11308F082958F70805DCEDC809153108C9F812D0A
S113090011248695869586958C9F912D1124969514
S113091096959695990F292F220F220F920F891BD6
S1130920805DB8DC809153108C9FC12D1124C69535
S1130930C695C695CC0F9C2F990F990FC90F8C1B88
S1130940805DA8DC8BE090E074C041E250E162E09D
S113095070E081E0C1DC8CE090E06BC06EE270E19D
S113096081E0A1DC8DE08EDC8091531099E2899FB7
S1130970812D1124CDEC82958F70805D8BDC80916C
S113098053108C9F812D11248695869586958C9F76
S1130990912D1124969596959695990F292F220FAE
S11309A0220F920F891B805D75DC809153108C9F00
S11309B0C12D1124C695C695C695CC0F9C2F990FB1
S11309C0990FC90F8C1B805D65DC80915510609177
S11309D0531022ED37E0829FF001839FF00D112424
S11309E0E057F74E6083811106C081E090E082D623
S11309F08DE090E01EC082E090E07CD68DE090E037
S1130A0018C08BE090E015C082E090E012C084E052
S1130A1090E00FC08EE090E00CC08EE090E009C042
S1130A208EE090E006C08EE090E003C0211157CE26
S1130A303FCDCF911F910F9108956093AE0F7093A6
S1130A40AF0F8093B00F9093B10F60935B107093CE
S1130A505C1080935D1090935E1008958BE08093FA
S1130A6081008DE790E0909389008093880082E074
S1130A7080936F0010928500109284008091AE0FD5
S1130A809091AF0FA091B00FB091B10F80935B1014
S1130A9090935C10A0935D10B0935E108FB7806844
S1130AA08FBF0895EF92FF920F931F93CF93DF931D
S1130AB081E080935F10C0E6D0E10F2EF0ECEF2EC2
S1130AC0F0E1FF2EF02D8E014E815F8168857985DE
S1130AD08A819B81AC81BD81481759076A077B07CE
S1130AE058F0EA85FB8588819981099599838883E3
S1130AF01E821F8218861986F80186819781A08537
S1130B00B1850596A11DB11D86839783A087B18702
S1130B102C96CE15DF05B9F6DF91CF911F910F9179
S1130B20FF90EF9008951F920F920FB60F92112429
S1130B300BB60F922F933F934F935F936F937F93D3
S1130B408F939F93AF93BF93EF93FF9380915B1029
S1130B5090915C10A0915D10B0915E100197A10975
S1130B60B10980935B1090935C10A0935D10B093D7
S1130B705E10892B8A2B8B2B89F494DF8091AE0F26
S1130B809091AF0FA091B00FB091B10F80935B1013
S1130B9090935C10A0935D10B0935E10FF91EF9161
S1130BA0BF91AF919F918F917F916F915F914F9181
S1130BB03F912F910F900BBE0F900FBE0F901F907F
S1130BC018953A9A3B9A3C9A0895429A0895429805
S1130BD00895439A43980895449A81E090E0FC0173
S1130BE03197F1F744980197F1F70895CF93DF9384
S1130BF0D82FC8E0DD2314F4E8DF01C0E8DFE9DF23
S1130C00DD0FC150B9F7E8DFDF91CF910895EF927E
S1130C10FF920F931F93CF93DF938130910559F087
S1130C201CF4009781F119C08230910569F083307A
S1130C30910549F112C080914810882321F1109246
S1130C4042101092411014C080914A10811116C0B4
S1130C508091481081110CC011C08230910541F07F
S1130C608330910559F08130910509F0DCC00BC047
S1130C700BE410E123E530E1F8013AC0EBE4F0E1E4
S1130C8083E590E1C2C080915A10882349F000E0C6
S1130C9011E0C0E0D0E06894EE24E7F8F12C0DC038
S1130CA0809159108111F3CF809158108111EFCFA9
S1130CB0809157108111EBCF14C0C7010C2E02C0D4
S1130CC0959587950A94E2F791DFF80181918F0158
S1130CD080958CDF83E090E0B6DA2196C830D105A8
S1130CE061F780E083DF80E081DF81E090E09BC0FA
S1130CF08081880F8193E217F307D1F72091551073
S1130D0030E08091561090E04091421062ED77E01F
S1130D10269FF001279FF00D369FF00D1124E80F58
S1130D20F91FE855FB4E50814517E0F5269FF00169
S1130D30279FF00D369FF00D11248E0F9F1FFC018D
S1130D40E456F94E8081883049F4EBE4F0E1878180
S1130D508360878386818360868320C0843049F4DE
S1130D60EBE4F0E1858183608583848183608483FF
S1130D7015C0823049F4EBE4F0E18381836083831E
S1130D808281836082830AC0813041F4EBE4F0E124
S1130D908181836081838081836080834F5F4093FE
S1130DA042103AC04091411062ED77E0269FF00175
S1130DB0279FF00D369FF00D11248E0F9F1FFC010D
S1130DC0EE55FA4E8081481720F44F5F409341104E
S1130DD023C010924210109241101EC0C7010C2E65
S1130DE002C0959587950A94E2F700DFF801819196
S1130DF08F018095FBDE85E090E025DA2196C830EE
S1130E00D10561F782E090E00EC01192E817F9076E
S1130E10E1F783E090E007C0C0E0D0E06894EE24FE
S1130E20E7F8F12CDBCFDF91CF911F910F91FF9069
S1130E30EF900895CF92DF92EF92FF926B017C01C5
S1130E409B01AC0160914410709145108091461053
S1130E5090914710C5D2882309F452C020E030E0B5
S1130E60A901C701B601BCD2811106C0E1E9F0E0D5
S1130E7080818870808305C0E1E9F0E0808183602F
S1130E80808328E539E344E75FE3C701B601A8D2CC
S1130E9088233CF48FEF9FEF909399008093980000
S1130EA023C020E034E244EF56E4C701B601AAD3DC
S1130EB018162CF4109299001092980015C020E096
S1130EC030E040E053E4C701B601A0D39B01AC017C
S1130ED060E074E284EF9AE487D2EED26150710943
S1130EE0709399006093980010929500109294006A
S1130EF0C0924410D0924510E0924610F0924710F0
S1130F00FF90EF90DF90CF90089580E4809390005D
S1130F108BE08093910060E070E0CB018BCF08956B
S1130F20109290001092910008958130910559F02B
S1130F301CF40097F1F012C08230910551F0833017
S1130F409105B9F00BC080914810882391F0DDDF42
S1130F501BC080914A108111D8C016C082309105FF
S1130F6099F08330910509F4D0C08130910509F0DE
S1130F70D3C01092401010923F1010923E10109265
S1130F803D1081E090E00895309155102091561065
S1130F9042ED57E0349FC001359F900D11248054D9
S1130FA09F4E820F911DFC01E452FA4F2081209341
S1130FB03C10E650FF4F908180913E108917C0F499
S1130FC080913D10811114C080915410281309C0E0
S1130FD0809153108F5F8093531081E08093491068
S1130FE002C01092491080913E108F5F80933E1092
S1130FF0909155108091561022ED37E0929FF001A8
S1131000939FF00D1124E054FF4EE80FF11DE851B9
S1131010FC4F908180914010891780F59091541075
S113102080913C10981309C0809153108F5F809376
S1131030531081E08093491002C0109249108091AE
S113104056109091551022ED37E0929FF001939F36
S1131050F00D112494E0899FE00DF11D1124E0545A
S1131060FF4E6081718182819381E4DE8091401022
S11310708F5F8093401082E090E0089560E070E01C
S1131080CB01D8DE8091551090E02091561030911C
S11310903F1042ED57E0849FF001859FF00D949F2F
S11310A0F00D1124E054FF4EE20FF11DEE51FB4F01
S11310B04081341730F43F5F30933F1082E090E07A
S11310C008951092401010923F1010923E1010920A
S11310D03D1042ED57E0849FF001859FF00D949FF1
S11310E0F00D1124EF56F74E8081281730F42F5F4E
S11310F02093561082E090E008951092481081E009
S113110080934A1082E090E008950ADF109256100E
S11311101092491083E090E008958FEF8AB91BB8CC
S113112087B918B811B882B984B915B809D949DD95
S113113080E05CDD8FEF5ADD81E090E0D3D28F3F19
S113114021F460E081E090E0D5D282E090E0CAD260
S11311508F3F21F460E082E090E0CCD281E090E027
S1131160C1D28093901882E090E0BCD28093622038
S11311708AEF8093911889E0809363200F2EF6EC18
S1131180CF2EFBE0DF2EF02D0F2EF0ECEF2EF0E152
S1131190FF2EF02D0CEC1AE068EA74E142ED59E000
S11311A022EA35E10F2EF8ED4F2EF8E05F2EF02DF8
S11311B08CE996E1CEEDD7E0A6E9B7E112010F2E56
S11311C0F6E97F2EF02DF60181909190A190B190D7
S11311D06F01F70181929192A192B1927F01F8017E
S11311E0B1908F01FB01B192BF01FA01B190AF013F
S11311F0F901B1929F01F101B1901F01FC01B1927B
S1131200CF01B990BD927A947110DDCF0F2EF6EF15
S1131210EF2EF3E0FF2EF02D02E918E16CEF72E0FF
S11312204AE75CE122E032E084E79DE1CEE6DEE1DC
S1131230A8E0B1E00F2EF8E62F2EFFE13F2EF02DAF
S1131240D12CF70181909190A190B1907F01F80188
S113125081929192A192B1928F01FB01C190BF0141
S1131260FA01C192AF01F901C1909F01FC01C19241
S1131270CF01F201C1902F01C992CD90F101C19229
S11312801F01D394F9E0DF12DCCFE0E6F0E1118234
S1131290108284E190E0A0E0B0E082839383A48391
S11312A0B58386839783A087B18722E830E03387AC
S11312B022871586148686879787A08BB18B828BAD
S11312C0938BA48BB58B25E930E0378B268B118E5D
S11312D0108E828F938FA48FB58F868F978FA0A344
S11312E0B1A328EA30E033A322A315A214A286A353
S11312F097A3A0A7B1A782A793A7A4A7B5A78BEB91
S113130090E097A786A711AA10AA8AE090E0A0E02F
S1131310B0E082AB93ABA4ABB5AB86AB97ABA0AF5D
S1131320B1AF27E036E033AF22AF15AE14AE4EE1D5
S113133050E060E070E040939E1050939F106093E3
S1131340A0107093A1104093A2105093A310609327
S1131350A4107093A51026EE31E03093A7102093CB
S1131360A6101092A9101092A8108093AA1090931E
S1131370AB10A093AC10B093AD108093AE109093CB
S1131380AF10A093B010B093B11085E997E090939B
S1131390B3108093B2101092B5101092B41085E07F
S11313A090E0A0E0B0E08093B6109093B710A093C3
S11313B0B810B093B9108093BA109093BB10A09357
S11313C0BC10B093BD108EEC90E09093BF1080934E
S11313D0BE1065E070E080E090E02FDB3FDBFFCFE4
S11313E09CD008F481E008950CD0D2C0CAD040F05B
S11313F0C1D030F021F45F3F19F0B3C05111FCC0EB
S1131400B6C0D7D098F39923C9F35523B1F3951BEC
S1131410550BBB27AA2762177307840738F09F5F11
S11314205F4F220F331F441FAA1FA9F333D00E2E80
S11314303AF0E0E830D091505040E695001CCAF7ED
S113144029D0FE2F27D0660F771F881FBB1F2617B2
S113145037074807AB07B0E809F0BB0B802DBF0185
S1131460FF2793585F4F2AF09E3F510568F079C0DB
S1131470C3C05F3FECF3983EDCF3869577956795A0
S1131480B795F7959F5FC9F7880F911D9695879536
S113149097F90895E1E0660F771F881FBB1F621755
S11314A073078407BA0720F0621B730B840BBA0B13
S11314B0EE1F88F7E095089504D06894B1119CC09C
S11314C008957FD088F09F5790F0B92F9927B7518E
S11314D0A0F0D1F0660F771F881F991F1AF0BA95F4
S11314E0C9F712C0B13081F086D0B1E0089583C04D
S11314F0672F782F8827B85F39F0B93FCCF38695EA
S113150077956795B395D9F73EF490958095709546
S113151061957F4F8F4F9F4F0895990F0008550F86
S1131520AA0BE0E8FEEF16161706E807F907C0F065
S113153012161306E407F50798F0621B730B840B6D
S1131540950B39F40A2661F0232B242B252B21F447
S113155008950A2609F4A140A6958FEF811D811DE7
S1131560089597F99F6780E870E060E008959FEF21
S113157080EC089500240A94161617061806090626
S1131580089500240A9412161306140605060895F5
S1131590092E0394000C11F4882352F0BB0F40F47D
S11315A0BF2B11F460FF04C06F5F7F4F8F4F9F4FBD
S11315B0089557FD9058440F551F59F05F3F71F03F
S11315C04795880F97FB991F61F09F3F79F08795A6
S11315D00895121613061406551FF2CF4695F1DF2F
S11315E008C0161617061806991FF1CF86957105BF
S11315F0610508940895E894BB2766277727CB01F3
S113160097F908958ADF08F48FEF08950BD0C0CFBF
S1131610B1DF28F0B6DF18F0952309F0A2CFA7CFE9
S11316201124EACFC6DFA0F3959FD1F3950F50E0C4
S1131630551F629FF001729FBB27F00DB11D639F80
S1131640AA27F00DB11DAA1F649F6627B00DA11D26
S1131650661F829F2227B00DA11D621F739FB00DCC
S1131660A11D621F839FA00D611D221F749F33273C
S1131670A00D611D231F849F600D211D822F762FD5
S11316806A2F11249F5750408AF0E1F088234AF0D2
S1131690EE0FFF1FBB1F661F771F881F915050401E
S11316A0A9F79E3F510570F05CCFA6CF5F3FECF3E6
S11316B0983EDCF3869577956795B795F795E7950A
S11316C09F5FC1F7FE2B880F911D9695879597F91B
S11316D00895EE0FFF1F0024001C0BBE0790F69127
S11316E0E02D0994F999FECF92BD81BDF89A99270E
S11316F080B50895262FF999FECF92BD81BDF89A41
S1131700019700B4021639F01FBA20BD0FB6F89441
S10F1710FA9AF99A0FBE0895F894FFCFDE
S113171C040C181818180C0400020102020101012F
S113172C03000000000000000000000000000000A6
S113173C0000000000000000000000000000000099
S113174C0000000000000000000000000000000089
S113175C0000000000000000000000000000000079
S113176C0000000000000000000000000000000069
S113177C0000000000000000000000000000000059
S113178C0000000000000000000000000000000049
S113179C0000000000000000000000000000000039
S11317AC0000000000000000000000000000000029
S11317BC0000000000000000000000000000000019
S11317CC0000000000000000000000000000000009
S11317DC00000000000000000000000000000000F9
S11317EC00000000000000000000000000000000E9
S11317FC00000000000000000000000000000000D9
S113180C00000000000000000000000000000000C8
S113181C000006040204040202021400000000008A
S113182C00000000000000000000000000000000A8
S113183C0000000000000000000000000000000098
S113184C0000000000000000000000000000000088
S113185C0000000000000000000000000000000078
S113186C0000000000000000000000000000000068
S113187C0000000000000000000000000000000058
S113188C0000000000000000000000000000000048
S113189C0000000000000000000000000000000038
S11318AC0000000000000000000000000000000028
S11318BC0000000000000000000000000000000018
S11318CC0000000000000000000000000000000008
S11318DC00000000000000000000000000000000F8
S11318EC00000000000000000000000000000000E8
S11318FC00000000000000000000000000000000D8
S113190C0000000000000000000000000A040204B3
S113191C04020202080000000000000000000000A5
S113192C00000000000000000000000000000000A7
S113193C0000000000000000000000000000000097
S113194C0000000000000000000000000000000087
S113195C0000000000000000000000000000000077
S113196C0000000000000000000000000000000067
S113197C0000000000000000000000000000000057
S113198C0000000000000000000000000000000047
S113199C0000000000000000000000000000000037
S11319AC0000000000000000000000000000000027
S11319BC0000000000000000000000000000000017
S11319CC0000000000000000000000000000000007
S11319DC00000000000000000000000000000000F7
S11319EC00000000000000000000000000000000E7
S11319FC00000000000000000000000000000000D7
S1131A0C000000000000000000000000B9430000CA
S1131A1CDC4300800A440000DC430000B9430000AE
S1131A2C9343000093430000934300000000000024
S1131A3C0000000000000000000000000000000096
S1131A4C0000000000000000000000000000000086
S1131A5C0000000000000000000000000000000076
S1131A6C0000000000000000000000000000000066
S1131DEC00000000000000000000000000001401CE
S1131DFC01010101010101020101010101020101C1
S1131E0C01010101010102010101010102010101B0
S1131E1C01010101010201010101010201010101A0
S1131E2C010101010103010202010201010101018D
S1131E3C0101010101010101010101010101010182
S1131E4C0101010101010101010101010101010172
S1131E5C0101010101010101010101010101010162
S1131E6C0101010101010101010000010101020153
S1131E7C010402020101010101010101010101013D
S1131E8C010104020401020101010100000000002F
S1131E9C0000000000000000000000000000000032
S1131EAC0000000000000000000000000000000022
S1131EBC0000000000000000000000000000000012
S1131ECC0000000000000000000000000000000002
S1131EDC00000000000000000000000000000000F2
S1131EEC00000000000000001408040201020108B4
S1131EFC0204080102040804080402010201080295
S1131F0C0408010204040408040201020108020189
S1131F1C080408080801020202020208010404046D
S1131F2C020201010108020101020802040102017A
S1131F3C0401080102020804020102040804040258
S1131F4C0102010402080408040201020408040446
S1131F5C0804080401020202040404040401020833
S1131F6C0804020804020102040404080204010126
S1131F7C0102010804080801010204020104080218
S1131F8C0204010202000000000000000000000036
S1131F9C0000000000000000000000000000000031
S1131FAC0000000000000000000000000000000021
S1131FBC0000000000000000000000000000000011
S1131FCC0000000000000000000000000000000001
S1131FDC00000000000000000000000000000000F1
S1131FEC00001400000202020202020602020202B3
S1131FFC02060000020202020202060202020202AD
S113200C0600000202020202020602020202020698
S113201C0000000000020202020802040402040090
S113202C0002020202020202020202020202020282
S113203C0000020202020202020202020202020274
S113204C0200000202020202020202020202020264
S113205C0202000000000202020202020C0202024E
S113206C0E02040204240604020202020202020208
S113207C0202020202021A1C0602180204020400E2
S113208C0000000000000000000000000000000040
S113209C0000000000000000000000000000000030
S11320AC0000000000000000000000000000000020
S11320BC0000000000000000000000000000000010
S11320CC0000000000000000000000000000000000
S11320DC00000000000000000000000014020202D6
S11320EC02020202020202020202020202020202C0
S11320FC02020202020202020202020202020202B0
S113210C020202020202020202020202020202029F
S113211C020202020202020202020202020202028F
S113212C020202020202020202020202020202027F
S113213C020202020202020202020202020202026F
S113214C020202020202020202020202020202025F
S113215C0202020202020C060A020E020202020C23
S113216C020402020202020202020202020202023D
S113217C080406020402020202000000000000002F
S113218C000000000000000000000000000000003F
S113219C000000000000000000000000000000002F
S11321AC000000000000000000000000000000001F
S11321BC000000000000000000000000000000000F
S11321CC00000000000000000000000000000000FF
S11321DC00000000000000000000000077430080B5
S11321EC8A4300809B430000F7430000B9430080FE
S11321FC0A440000B94300801B4400003944000029
S113220CF74300801B440000F74300C024440080C3
S113221C1B440000F7430000774300808A4300808E
S113222C9B430000F7430000B94300800A440000BC
S113223CB94300801B44000039440000F74300807C
S113224C1B440000F74300C0244400801B440000DE
S113225CF7430000774300808A4300809B430000CF
S113226CF7430000B94300800A440000B9430080DE
S113227C1B44000039440000F74300801B44000059
S113228CF74300C0244400801B440000F743008043
S113229C0A4400801B440000394400801B44008025
S11322AC0A440000F74300800A440000B9430000CC
S11322BCF7430000B9430000B9430000B9430000E0
S11322CC394400003944000039440000774300804D
S11322DC8A4300809B430000F7430000B94300800D
S11322EC0A440000B94300801B440000B9C300C079
S11322FC24440000B94300801B440000B94300008F
S113230C39440000B9430000F7430000B94300000E
S113231C774300808A4300809B430000F74300000E
S113232CB94300800A440000B94300801B440000F8
S113233CB94300C024440000B94300801B4400008E
S113234CB94300800A440000B94300801B440000D8
S113235CF743000077C300808A4300809B4300004E
S113236CF7430000B94300800A440000B9430080DD
S113237C1B440000B94300C024440000B94300804E
S113238C1B440000B943000039440000B943000069
S113239CF7430000B94300800A4400801B4400004A
S11323AC394400801B4400800A440000F743008039
S11323BC0A440000B9430000F7430000B94300008D
S11323CC3944000039430000774300808A430000FD
S11323DC7743000039430000A54300809B430080F1
S11323EC8A43000077430000774300808A430080CF
S11323FC9B4300808A4300809B430000A5430080DC
S113240C9B4300808A430000774300808A4300800A
S113241C9B4300809B4300809B430000A5430080AA
S113242C9B4300808A4300007743000077430000FD
S113243C774300809B4300809B4300809B430000B8
S113244CA54300809B43000077430000000000007C
S113245C000000000000000000000000000000006C
S113246C000000000000000000000000000000005C
S113247C000000000000000000000000000000004C
S113248C000000000000000000000000000000003C
S113249C000000000000000000000000000000002C
S11324AC000000000000000000000000000000001C
S11324BC000000000000000000000000000000000C
S11324CC00000000000000000000000000000000FC
S11324DC00000000000000000000000000000000EC
S11324EC00000000000000000000000000000000DC
S11324FC00000000000000000000000000000000CC
S113250C00000000000000000000000000000000BB
S113251C00000000000000000000000000000000AB
S113252C000000000000000000000000000000009B
S113253C000000000000000000000000000000008B
S113254C000000000000000000000000000000007B
S113255C000000000000000000000000000000006B
S113256C000000000000000000000000000000005B
S113257C000000000000000000000000000000004B
S113258C000000000000000000000000000000003B
S113259C000000000000000000000000000000002B
S11325AC000000000000000000000000000000001B
S11325BC000000000000000000000000000001000A
S11325CC000004021F001F08040000001B15110A60
S11325DC0400040E1F040404040404040404041F6F
S11325EC0E0401020408040201001008040202048F
S11325FC08105072657373202D20746F20737461EE
S113260C7274005A454E205A454E205A454E534535
S113261C004D4949005072657373202D20746F204E
S113262C706C617900486967682053636F72653A0E
S113263C0054727920616761696E203A2800484918
S10F264C47482053434F5245213A0000F8
S9030000FC
