S01B000052687974686D5F47616D655F50726F6A6563742E737265637E
S113000061C000007EC000007CC000007AC0000017
S113001078C0000076C0000074C0000072C0000008
S113002070C000006EC000006CC000006AC0000018
S113003068C000008AC5000064C0000062C00000FF
S113004060C000005EC000005CC000005AC0000038
S113005058C0000056C0000054C0000052C0000048
S113006050C000004EC000004CC000004AC0000058
S113007048C0000046C0000044C0000042C0000068
S113008040C000003EC000003CC000006703F20115
S1130090060218027702650289029B02BF02E3028C
S11300A0F40202030C033A034B0367032B056F03AB
S11300B02B052B052B059103F3032B0555046A042B
S11300C0BA04C30411241FBECFEFD0E4DEBFCDBFFA
S11300D01AE0A0E0B1E0E0E5F7E100E00BBF02C008
S11300E007900D92AE36B107D9F724E1AEE6BAE037
S11300F001C01D92A635B207E1F70E94A7080C942F
S1130100A60B7ECF8230910518F08130910561F401
S1130110039906C081E080938C0A81E090E0089501
S113012010928C0A81E090E008958230910518F0D5
S11301308130910561F4009906C081E080938B0AB7
S113014081E090E0089510928B0A81E090E0089598
S11301508230910518F08130910561F4019906C04F
S113016081E080938A0A81E090E0089510928A0ADF
S113017081E090E008958230910518F08130910576
S113018061F4029906C081E08093890A81E090E0DD
S113019008951092890A81E090E0089582309105D3
S11301A020F08130910509F04DC080918C0A88239C
S11301B091F080918B0A811138C080918A0A811153
S11301C034C08091890A811130C088E08093860A06
S11301D081E090E0089580918B0A811130C0809174
S11301E08A0A811127C08091890A882319F184E041
S11301F08093860A81E090E008958091890A8111B4
S113020014C082E08093860A81E090E00895809192
S11302108A0A81110AC08091890A811106C081E08D
S11302208093860A81E090E008951092860A81E026
S113023090E0089580918A0A8111DFCFF6CF811171
S1130240E6CFF3CF0895181619065CF00895000060
S113025021503109E1F74F5F5F4F8417950719F477
S1130260089540E050E027E033E0F1CF28988BB9BF
S1130270299A0000299882E090E0E5CF089581E072
S1130280F5CF0895813118F48158F0CF0895815540
S1130290EDCF0895289A8BB9299A0000299881E016
S11302A090E0D1CF08950F931F93CF93DF93182F2E
S11302B0EB01E5DF8881882351F001E0010F812FF4
S11302C0E1DF8991E7DF102F88818111F6CFDF917B
S11302D0CF911F910F9108951F93CF93DF936230B5
S11302E0710509F4805FFA019081992351F0EA01C4
S11302F011E0180FC7DF8991CDDF812F988191110B
S1130300F7CFDF91CF911F9108950F931F93CF9350
S1130310DF938B01883068F4880F880F880F805C26
S1130320A5DFE801085F1F4F8991B4DFC017D1072B
S1130330D9F780E89BDFDF91CF911F910F9108954A
S113034084E690E080DF88E391DF86E08FDF8FE052
S11303508DDF81E08BDF8AE090E075DF6FEF79E07D
S113036080E0D3DF67EF79E081E0CFDF6FEE79E003
S113037082E0CBDF67EE79E084E0C7DF6FED79E000
S113038085E0C3DF67ED79E086E0BFCF08958CE0B8
S11303906DDF81E077DF85E07DDF86E073DF81E07C
S11303A079DF82E077DF84E075DF80E073DF80E16E
S11303B069DF85E06FDF47E05AE062E070E081E0EA
S11303C08BDF87E15FDF86E065CF08950F931F938E
S11303D0CF938F30910508F070C1FC01EA5BFF4FA9
S11303E00C94830B80918C0A882309F470C180914A
S11303F08B0A882309F46BC18091890A882309F444
S113040066C180918A0A811111C361C120918C0A4D
S1130410211121C320918B0A21111DC320918A0A25
S1130420211119C32091890A211115C328DF57C14D
S113043020918C0A222371F030918B0A31110AC069
S113044030918A0A311106C02091890A211135C1DF
S113045016DF3DC18091890A8823B1F080918A0A10
S113046081113DC121113BC180918B0A811137C19A
S11304708091870A882321F081E08093870A33C121
S113048081E08093870A2FC180918A0A882309F426
S1130490DFC2211124C180918B0A811120C1809176
S11304A0870A882309F426C181508093870A17C1DB
S11304B080918B0A882309F412C18091870A8823CA
S11304C009F4B7C285E090E0C6C220918C0A2111DC
S11304D0C2C220918B0A2111BEC220918A0A211125
S11304E0BAC22091890A2111B6C2C9DE7CC1209109
S11304F08C0A2111B0C220918B0A2111ACC2209127
S11305008A0A2111A8C22091890A2111A4C2B7DE46
S113051008C120918C0A21119EC220918B0A2111BD
S11305209AC220918A0A211196C22091890A211126
S113053092C2A5DED4C080918C0A882379F0809180
S11305408B0A8111EEC080918A0A8111EAC08091E0
S1130550890A8111E6C086E090E07DC280918B0A11
S1130560882309F4DEC080918A0A8111DAC080915F
S1130570890A8111D6C083DE89E090E06CC2809143
S11305808C0A882379F080918B0A81112CC1809187
S11305908A0A811128C18091890A811124C186E0C7
S11305A090E059C280918B0A882309F41CC1809180
S11305B08A0A811118C18091890A811114C15FDEF0
S11305C089E090E048C220918C0A211144C2209114
S11305D08B0A211140C220918A0A21113CC2209128
S11305E0890A211138C261C18091750A893120F4C8
S11305F08F5F8093750A59C11092750A81E08093C8
S11306007A0A68C180917C0A882309F463C18091C5
S11306107A0A81115FC1AEC12091870A82EB94E00E
S1130620289FF001299FF00D1124EE55F04F908181
S11306308091850A981730F410927C0A10927B0AF4
S11306401EDEA1C180918C0A81110DC080918B0A9C
S1130650811109C080918A0A811105C08091890A9B
S1130660882309F487C110927C0A10927B0A8EE0D9
S113067090E0F1C180918C0A8111DEC180918B0AD6
S11306808111DDC180918A0A8111DCC18091890ABE
S11306908111DBC178C120918C0A2111DCC1209128
S11306A08B0A2111D8C120918A0A2111D4C1209129
S11306B0890A2111D0C1E3DD0AC0FC013197ED3074
S11306C0F10508F0C8C1EB5AFF4F0C94830B10924C
S11306D0870A1092850A5BDE81E090E0BCC18091BC
S11306E0870A882339F081E0CDDD80E2D3DD81E122
S11306F0C9DD06C081E1C6DD80E2CCDD81E0C2DD7A
S113070085EAC8DD48E15AE061E070E082E0E4DDBA
S113071046E25AE062E070E082E0DEDD83E090E0F1
S11307209AC14AE25AE061E070E081E0D5DD87E0F9
S1130730A9DD80E0AFDD4AE35AE062E070E081E0E9
S1130740CBDD8CE19FDD8091870A02EB14E0809F72
S1130750F001819FF00D1124EE55F04F808199E254
S1130760899F812D1124CDEC82958F70805D92DD5F
S11307708091870A809FF001819FF00D1124EE552E
S1130780F04F80818C9F812D1124869586958695C6
S11307908C9F912D1124969596959695990F292FB6
S11307A0220F220F920F891B805D74DD8091870ACE
S11307B0809FF001819FF00D1124EE55F04F808150
S11307C08C9FC12D1124C695C695C695CC0F9C2F20
S11307D0990F990FC90F8C1B805D5CDD81E252DD9E
S11307E087E090E038C14AE25AE061E070E081E0DD
S11307F073DD87E047DD80E04DDD4AE35AE062E0E7
S113080070E081E069DD8CE13DDD8091870A02EBD7
S113081014E0809FF001819FF00D1124EE55F04FFC
S1130820808199E2899F812D1124CDEC82958F706E
S1130830805D30DD8091870A809FF001819FF00DFB
S11308401124EE55F04F80818C9F812D11248695C3
S1130850869586958C9F912D1124969596959695BF
S1130860990F292F220F220F920F891B805D12DD11
S11308708091870A809FF001819FF00D1124EE552D
S1130880F04F80818C9FC12D1124C695C695C695C5
S1130890CC0F9C2F990F990FC90F8C1B805DFADC2C
S11308A081E2F0DC88E090E0D6C06FE37AE081E09A
S11308B0FADC89E0E7DC8091850A805DEBDC8091DD
S11308C0850A805DE7DC8091850A805DE3DC8AE04F
S11308D090E0C1C080917B0A8823B1F189E0D2DC29
S11308E08091850A99E2899F812D1124CDEC82950E
S11308F08F70805DCFDC8091850A8C9F812D1124BF
S11309008695869586958C9F912D1124969596951E
S11309109695990F292F220F220F920F891B805D24
S1130920B9DC8091850A8C9FC12D1124C695C6958A
S1130930C695CC0F9C2F990F990FC90F8C1B805D06
S1130940A9DC8BE090E087C080910001863049F4F7
S113095046E45AE062E070E081E0BEDC8BE090E0C7
S11309607AC04FE45AE062E070E081E0B5DC8BE0ED
S113097090E071C044E55AE062E070E081E0ACDCF4
S11309808CE090E068C061E67AE081E08CDC8DE088
S113099079DC8091850A99E2899F812D1124CDEC1F
S11309A082958F70805D76DC8091850A8C9F812D85
S11309B011248695869586958C9F912D1124969564
S11309C096959695990F292F220F220F920F891B26
S11309D0805D60DC8091850A8C9FC12D1124C695B1
S11309E0C695C695CC0F9C2F990F990FC90F8C1BD8
S11309F0805D50DC8091870A6091850A22EB34E0A7
S1130A00829FF001839FF00D1124EE55F04F608317
S1130A10811106C081E090E087D68DE090E01BC094
S1130A2082E090E081D68DE090E015C082E090E015
S1130A3012C084E090E00FC08EE090E00CC08EE025
S1130A4090E009C08EE090E006C08EE090E003C024
S1130A50211145CE2DCDCF911F910F910895609313
S1130A60D3097093D4098093D5099093D6096093E0
S1130A708D0A70938E0A80938F0A9093900A08953A
S1130A808BE0809381008DE790E0909389008093C0
S1130A90880082E080936F00109285001092840099
S1130AA08091D3099091D409A091D509B091D60928
S1130AB080938D0A90938E0AA0938F0AB093900A24
S1130AC08FB780688FBF0895EF92FF920F931F93A3
S1130AD0CF93DF9381E08093910AC2E9DAE00F2E8D
S1130AE0F2EFEF2EFAE0FF2EF02D8E014E815F81A2
S1130AF0688579858A819B81AC81BD8148175907B6
S1130B006A077B0758F0EA85FB85888199810995F6
S1130B10998388831E821F8218861986F80186812C
S1130B209781A085B1850596A11DB11D8683978304
S1130B30A087B1872C96CE15DF05B9F6DF91CF914A
S1130B401F910F91FF90EF9008951F920F920FB68F
S1130B500F9211240BB60F922F933F934F935F93F1
S1130B606F937F938F939F93AF93BF93EF93FF9371
S1130B7080918D0A90918E0AA0918F0AB091900A6B
S1130B800197A109B10980938D0A90938E0AA093CD
S1130B908F0AB093900A892B8A2B8B2B89F494DFCC
S1130BA08091D3099091D409A091D509B091D60927
S1130BB080938D0A90938E0AA0938F0AB093900A23
S1130BC0FF91EF91BF91AF919F918F917F916F9121
S1130BD05F914F913F912F910F900BBE0F900FBEDD
S1130BE00F901F9018953A9A3B9A3C9A0895429A0E
S1130BF0089542980895439A43980895449A81E049
S1130C0090E0FC013197F1F744980197F1F70895CA
S1130C10CF93DF93D82FC8E0DD2314F4E8DF01C0BD
S1130C20E8DFE9DFDD0FC150B9F7E8DFDF91CF91ED
S1130C300895EF92FF920F931F93CF93DF93813028
S1130C40910559F01CF40097B9F120C08230910548
S1130C50A1F08330910581F119C080917A0A88232B
S1130C6059F18091870A882319F086E08093000166
S1130C701092740A1092730A14C080917C0A811134
S1130C8016C080917A0A81110CC011C0823091057E
S1130C9041F08330910559F08130910509F0DDC0B0
S1130CA00BC00DE71AE025E83AE0F8013AC0EDE799
S1130CB0FAE085E89AE0C3C080918C0A882349F061
S1130CC001E011E0C0E0D0E06894EE24E7F8F12CF4
S1130CD00DC080918B0A8111F3CF80918A0A811112
S1130CE0EFCF8091890A8111EBCF14C0C7010C2E7C
S1130CF002C0959587950A94E2F78ADFF8018191FD
S1130D008F01809585DF83E090E09DDA2196C830DD
S1130D10D10561F780E07CDF80E07ADF81E090E05C
S1130D209CC08081880F8193E217F307D1F720914B
S1130D30870A30E08091880A90E04091740A62EB5F
S1130D4074E0269FF001279FF00D369FF00D1124CB
S1130D50E80FF91FE65BF24F50814517E0F5269F37
S1130D60F001279FF00D369FF00D11248E0F9F1F69
S1130D70FC01EA58F14F8081883049F4EDE7FAE04C
S1130D8087818360878386818360868320C08430E3
S1130D9049F4EDE7FAE0858183608583848183608B
S1130DA0848315C0823049F4EDE7FAE083818360DF
S1130DB083838281836082830AC0813041F4EDE7BA
S1130DC0FAE08181836081838081836080834F5FC7
S1130DD04093740A3BC04091730A62EB74E0269F0F
S1130DE0F001279FF00D369FF00D11248E0F9F1FE9
S1130DF0FC01E052F24F8081481720F44F5F40938A
S1130E00730A24C01092740A1092730A1FC0C70197
S1130E100C2E02C0959587950A94E2F7F9DEF80145
S1130E2081918F018095F4DE8091000190E00BDACE
S1130E302196C830D10559F782E090E00EC0119296
S1130E40E817F907E1F783E090E007C0C0E0D0E0DD
S1130E506894EE24E7F8F12CDACFDF91CF911F915B
S1130E600F91FF90EF900895CF92DF92EF92FF924F
S1130E706B017C019B01AC016091760A7091770A49
S1130E808091780A9091790AC5D2882309F452C0D6
S1130E9020E030E0A901C701B601BCD2811106C02F
S1130EA0E1E9F0E080818870808305C0E1E9F0E049
S1130EB080818360808328E539E344E75FE3C701E9
S1130EC0B601A8D288233CF48FEF9FEF909399004A
S1130ED08093980023C020E034E244EF56E4C70135
S1130EE0B601AAD318162CF4109299001092980007
S1130EF015C020E030E040E053E4C701B601A0D3C0
S1130F009B01AC0160E074E284EF9AE487D2EED2F4
S1130F106150710970939900609398001092950044
S1130F2010929400C092760AD092770AE092780ADE
S1130F30F092790AFF90EF90DF90CF90089580E4CB
S1130F40809390008BE08093910060E070E0CB018F
S1130F508BCF0895109290001092910008958130E3
S1130F60910559F01CF40097F1F012C082309105FC
S1130F7051F083309105B9F00BC080917A0A88232F
S1130F8091F0DDDF1BC080917C0A8111D8C016C0AE
S1130F908230910599F08330910509F4D0C08130F5
S1130FA0910509F0D3C01092720A1092710A10923E
S1130FB0700A10926F0A81E090E008953091870AD8
S1130FC02091880A42EB54E0349FC001359F900D74
S1130FD011248E50954F820F911DFC01EC57FC4F4C
S1130FE0208120936E0AEA56FF4F90818091700A07
S1130FF08917C0F480916F0A811114C08091860A08
S1131000281309C08091850A8F5F8093850A81E047
S113101080937B0A02C010927B0A8091700A8F5FD2
S11310208093700A9091870A8091880A22EB34E0B9
S1131030929FF001939FF00D1124EE50F54FE80FAD
S1131040F11DE85AFD4F90818091720A891780F54D
S11310509091860A80916E0A981309C08091850A3E
S11310608F5F8093850A81E080937B0A02C010928F
S11310707B0A8091880A9091870A22EB34E0929F40
S1131080F001939FF00D112494E0899FE00DF11D70
S11310901124EE50F54F6081718182819381E4DEE9
S11310A08091720A8F5F8093720A82E090E00895C3
S11310B060E070E0CB01D8DE8091870A90E0209157
S11310C0880A3091710A42EB54E0849FF001859FB5
S11310D0F00D949FF00D1124EE50F54FE20FF11D29
S11310E0E251FD4F4081341730F43F5F3093710A71
S11310F082E090E008951092720A1092710A1092A0
S1131100700A10926F0A42EB54E0849FF001859FAD
S1131110F00D949FF00D1124ED55F04F80812817A8
S113112030F42F5F2093880A82E090E008951092B3
S11311307A0A81E080937C0A82E090E008950ADFD5
S11311401092880A10927B0A83E090E008958FEF52
S11311508AB91BB887B918B811B882B984B915B857
S1131160EFD841DD80E054DD8FEF52DD81E090E087
S1131170D3D28F3F21F460E081E090E0D5D282E0C9
S113118090E0CAD28F3F21F460E082E090E0CCD2BC
S113119081E090E0C1D28093A20F82E090E0BCD2C3
S11311A08093541486E98093A30F85E680935514A5
S11311B00F2EFBE7CF2EF7E0DF2EF02D0F2EF2EFF0
S11311C0EF2EFAE0FF2EF02D05EE16E06AE47DE046
S11311D04FE456E020EE3DE00F2EF9EBAF2EF5E0A4
S11311E0BF2EF02D86E79EE0C3E2D5E0ACE0BFE081
S11311F015010F2EF6E99F2EF02DF6014190519026
S1131200619071906F01F7014192519261927192D4
S11312107F01F80171908F01FB017192BF01FA0106
S11312207190AF01F90171929F01F10171901F0159
S1131230FC017192CF0179907D929A949110DDCF47
S11312400F2EFBECEF2EF2E0FF2EF02D04EA1FE050
S113125065E372E04CEF51E12FE931E082E992E17C
S1131260C8E2D3E1A9E0B1E00F2EFEEB8F2EF3E14B
S11312709F2EF02DD12CF7014190519061907190E7
S11312807F01F80141925192619271928F01FB01A9
S1131290C190BF01FA01C192AF01F901C1909F0150
S11312A0FC01C192CF01F501C1905F01C992CD90BB
S11312B0F401C1924F01D394F5E6DF12DCCFE2E9E9
S11312C0FAE01182108284E190E0A0E0B0E0828331
S11312D09383A483B58386839783A087B18722E809
S11312E030E0338722871586148686879787A08BFC
S11312F0B18B828B938BA48BB58B25E930E0378B34
S1131300268B118E108E828F938FA48FB58F868F2C
S1131310978FA0A3B1A328EA30E033A322A315A298
S113132014A286A397A3A0A7B1A782A793A7A4A753
S1131330B5A78BEB90E097A786A711AA10AA8AE01D
S113134090E0A0E0B0E082AB93ABA4ABB5AB86ABCE
S113135097ABA0AFB1AF29E136E033AF22AF15AE02
S113136014AE4EE150E060E070E04093D00A509338
S1131370D10A6093D20A7093D30A4093D40A50934B
S1131380D50A6093D60A7093D70A26EE31E03093DB
S1131390D90A2093D80A1092DB0A1092DA0A8093B1
S11313A0DC0A9093DD0AA093DE0AB093DF0A8093EF
S11313B0E00A9093E10AA093E20AB093E30A8FEA69
S11313C097E09093E50A8093E40A1092E70A10925A
S11313D0E60A85E090E0A0E0B0E08093E80A90930C
S11313E0E90AA093EA0AB093EB0A8093EC0A90937B
S11313F0ED0AA093EE0AB093EF0A8EEC90E090937E
S1131400F10A8093F00A65E070E080E090E027DB69
S113141037DBFFCF9CD008F481E008950CD0D2C014
S1131420CAD040F0C1D030F021F45F3F19F0B3C00E
S11314305111FCC0B6C0D7D098F39923C9F35523F2
S1131440B1F3951B550BBB27AA27621773078407B3
S113145038F09F5F5F4F220F331F441FAA1FA9F369
S113146033D00E2E3AF0E0E830D091505040E6955B
S1131470001CCAF729D0FE2F27D0660F771F881FBC
S1131480BB1F261737074807AB07B0E809F0BB0BAB
S1131490802DBF01FF2793585F4F2AF09E3F5105CF
S11314A068F079C0C3C05F3FECF3983EDCF38695E7
S11314B077956795B795F7959F5FC9F7880F911D45
S11314C09695879597F90895E1E0660F771F881F31
S11314D0BB1F621773078407BA0720F0621B730BE4
S11314E0840BBA0BEE1F88F7E095089504D0689436
S11314F0B1119CC008957FD088F09F5790F0B92F08
S11315009927B751A0F0D1F0660F771F881F991F54
S11315101AF0BA95C9F712C0B13081F086D0B1E0A3
S1131520089583C0672F782F8827B85F39F0B93FB3
S1131530CCF3869577956795B395D9F73EF4909556
S11315408095709561957F4F8F4F9F4F0895990FA8
S11315500008550FAA0BE0E8FEEF16161706E80779
S1131560F907C0F012161306E407F50798F0621B9A
S1131570730B840B950B39F40A2661F0232B242B6F
S1131580252B21F408950A2609F4A140A6958FEF8E
S1131590811D811D089597F99F6780E870E060E0E0
S11315A008959FEF80EC089500240A9416161706F8
S11315B018060906089500240A9412161306140640
S11315C005060895092E0394000C11F4882352F0A3
S11315D0BB0F40F4BF2B11F460FF04C06F5F7F4F5B
S11315E08F4F9F4F089557FD9058440F551F59F042
S11315F05F3F71F04795880F97FB991F61F09F3FFC
S113160079F087950895121613061406551FF2CF24
S11316104695F1DF08C0161617061806991FF1CF74
S113162086957105610508940895E894BB2766279B
S11316307727CB0197F908958ADF08F48FEF08958F
S11316400BD0C0CFB1DF28F0B6DF18F0952309F036
S1131650A2CFA7CF1124EACFC6DFA0F3959FD1F381
S1131660950F50E0551F629FF001729FBB27F00D4C
S1131670B11D639FAA27F00DB11DAA1F649F6627A1
S1131680B00DA11D661F829F2227B00DA11D621FF0
S1131690739FB00DA11D621F839FA00D611D221FAA
S11316A0749F3327A00D611D231F849F600D211D8E
S11316B0822F762F6A2F11249F5750408AF0E1F031
S11316C088234AF0EE0FFF1FBB1F661F771F881F7A
S11316D091505040A9F79E3F510570F05CCFA6CFC2
S11316E05F3FECF3983EDCF3869577956795B79565
S11316F0F795E7959F5FC1F7FE2B880F911D96958F
S1131700879597F90895EE0FFF1F0024001C0BBE68
S11317100790F691E02D0994F999FECF92BD81BD11
S1131720F89A992780B50895262FF999FECF92BD8E
S113173081BDF89A019700B4021639F01FBA20BD92
S11317400FB6F894FA9AF99A0FBE0895F894FFCF59
S113175005040C181818180C0400020102020101F7
S1131760010301010202010201020201020202015B
S11317700101020101000100020102020101010153
S11317800100020101020201020201010102010140
S1131790000101010200010100000201000001003A
S11317A0020001000000010000010000010000002F
S11317B00000000000000100000000000004000020
S11317C00000000000000000000000000000000015
S11317D00000000000000000000000000000000005
S11317E000000000000000000000000000000006EF
S11317F00402040402020214020204040208020C99
S113180004020404040202020402020202020402A8
S113181004040202020402020802020404020C0C80
S11318200202020402020202020204020202020290
S11318301002020202021804040802120202020444
S11318400208021804040802100202020402080238
S11318501802022800000000000000000000000040
S11318600000000000000000000000000000000074
S11318700000000000000000000000000000000064
S113188000000000000A040204040202020802022A
S11318900404020402040402040404020202040212
S11318A0020202020402040402020204020204020A
S11318B002040402040402020204020202020202FA
S11318C004020202020204020202020208040404E4
S11318D002060202020402040208040404020802CA
S11318E00202040204020802020A000000000000CE
S11318F000000000000000000000000000000000E4
S113190000000000000000000000000000000000D3
S113191000000000000000000000000000000000C3
S113192000B9430000DC4300800A440000DC4300AB
S113193000B9430000934300009343000093430025
S113194000B9430000DC4300800A440000DC43008B
S113195000B94300C0244400801B4400C01244006A
S113196080CF4300800A440000B94300800A440049
S113197080CF430000A5430000A5430000A5430019
S113198000B9430000A54300809B430000A5430029
S113199000A5430000A54300808A430000DC430007
S11319A0800A440000DC430000B9430000A5430062
S11319B000A5430000A54300C0244400C024440003
S11319C0C024440000B9430000DC4300800A440002
S11319D000DC430000B94300C0244400C0124400AA
S11319E000F7430000C4430000934300808A43008F
S11319F000F7430000C44300808A430000DC430036
S1131A0000B94300008343000077430080AE4300E5
S1131A10009343000077430000A5430000A5430062
S1131A2000A5430000E9430000F74300800A440096
S1131A30C012440000394400005C4400C002440069
S1131A40800A4400800A4400800A4400800A44005A
S1131A5000F74300C0024400800A4400C04F440021
S1131A60801B4400800A4400C0024400800A4400F1
S1131A70800A4400C0124400801B4400C012440089
S1131A80801B4400801B4400C0124400801B44009F
S1131A9000694400802E4400801B4400802E4400D2
S1131AA0800A4400800A4400800A4400800A4400FA
S1131AB00000000000000000000000000000000022
S1131AC00000000000000000000000000000000012
S1131AD00000000000000000000000000000000002
S1131AE000000000000000000000000000000000F2
S1131AF000000000000000000000000000000000E2
S1131B0000000000000000000000000000000000D1
S1131B1000000000000000000000000000000000C1
S1131B2000000000000000000000000000000000B1
S1131B3000000000000000000000000000000000A1
S1131B400000000000000000000000000000000091
S1131B500000000000000000000000000000000081
S1131B600000000000000000000000000000000071
S1131B700000001401010101010101010201010140
S1131B80010102010101010101010102010101013F
S1131B90010201010101010101010201010101012F
S1131BA0020101010101010101010301020201021B
S1131BB00101010101010101010101010101010111
S1131BC00101010101010101010101010101010101
S1131BD001010101010101010101010101010101F1
S1131BE001010101010101010101010101010000E3
S1131BF001010102010104020201010101010101CB
S1131C00010101010101010400140804020102019F
S1131C10080204080102040804080402010201087D
S1131C200204080102040404080402010201080277
S1131C30010804080808010202020202080104045F
S1131C400402020101010802010102080204010266
S1131C500104010801020208040201020408040448
S1131C600201020104020804080402010204080437
S1131C700408040804010202020404040404010226
S1131C80080804020804020102040404080204010E
S1131C900101020108040808010102040201001400
S1131CA0000002020202020206020202020206000E
S1131CB000020202020202060202020202060000FE
S1131CC002020202020206020202020206000000EE
S1131CD000000202020208020404020400000202DC
S1131CE002020202020202020202020202000002D4
S1131CF002020202020202020202020202020000C4
S1131D0002020202020202020202020202020200B1
S1131D100000000202020202020C0202020E02048D
S1131D200204240604020202020202020202020265
S1131D300202021A00140202020202020202020257
S1131D40020202020202020202020202020202026F
S1131D50020202020202020202020202020202025F
S1131D60020202020202020202020202020202024F
S1131D70020202020202020202020202020202023F
S1131D80020202020202020202020202020202022F
S1131D90020202020202020202020202020202021F
S1131DA00202020202020202020202020202020C05
S1131DB0060A020E020202020C02040202020202DB
S1131DC002020202020202020208000000000000F5
S1131DD000774300808A4300809B430000F7430060
S1131DE000B94300800A440000B94300801B44004A
S1131DF00039440000F74300801B440000F743000F
S1131E00C0244400801B440000F7430000774300D3
S1131E10808A4300809B430000F7430000B94300DD
S1131E20800A440000B94300801B44000039440088
S1131E3000F74300801B440000F74300C024440023
S1131E40801B440000F7430000774300808A43006E
S1131E50809B430000F7430000B94300800A44001C
S1131E6000B94300801B44000039440000F74300DC
S1131E70801B440000F74300C0244400801B44003E
S1131E8000F74300800A4400801B440000394400EA
S1131E90801B4400800A440000F74300800A440089
S1131EA000B9430000F7430000B9430000B9430000
S1131EB000B94300003944000039440000394400AB
S1131EC000774300808A4300809B430000F743006F
S1131ED000B94300800A440000B94300801B440059
S1131EE000B9C300C024440000B94300801B44006F
S1131EF000B943000039440000B9430000F743002F
S1131F0000B9430000774300808A4300809B43006C
S1131F1000F7430000B94300800A440000B94300BD
S1131F20801B440000B94300C024440000B94300AE
S1131F30801B440000B94300800A440000B94300F8
S1131F40801B440000F743000077C300808A4300ED
S1131F50809B430000F7430000B94300800A44001B
S1131F6000B94300801B440000B94300C02444006E
S1131F7000B94300801B440000B943000039440009
S1131F8000B9430000F7430000B94300800A44004D
S1131F90801B440000394400801B4400800A440034
S1131FA000F74300800A440000B9430000F74300EF
S1131FB000B943000039440000394300007743006E
S1131FC0808A4300007743000039430000A54300A2
S1131FD0809B4300808A43000077430000774300DE
S1131FE0808A4300809B4300808A4300809B430097
S1131FF000A54300809B4300808A43000077430090
S1132000808A4300809B4300809B4300809B430065
S113201000A54300809B4300808A4300007743006F
S11320200000000100000004021F001F080400005B
S1132030001B15110A0400040E1F04040404040404
S1132040040404041F0E0401020408040201001025
S1132050080402020408105072657373202D207462
S11320606F207374617274005A454E205A454E2095
S11320705A454E5345004D494900507265737320CB
S11320802D20746F20706C61790048696768205353
S1132090636F72653A004D6F6465726174650048E0
S11320A04152440054727920616761696E203A2874
S11120B000484947482053434F5245213A0007
S9030000FC
